:020000040800F2
:1000000018040020ED010008FB100008D10C0008C6
:10001000F9100008590200089D14000800000000B3
:1000200000000000000000000000000013140008A1
:100030005B02000800000000FD1000081514000815
:10004000070200080702000807020008070200086C
:10005000070200080702000807020008070200085C
:10006000070200080702000807020008070200084C
:10007000070200080702000807020008070200083C
:10008000070200080000000007020008070200083D
:10009000070200080702000807020008070200081C
:1000A000070200080702000807020008070200080C
:1000B00007020008070200080702000807020008FC
:1000C00007020008070200080702000807020008EC
:1000D00007020008070200080702000807020008DC
:1000E00007020008070200080702000807020008CC
:1000F00007020008070200080702000800000000CD
:1001000000000000070200080000000007020008CD
:1001100007020008000000000702000807020008AC
:10012000070200080702000807020008070200088B
:10013000070200080000000000000000070200089D
:10014000070200080702000800000000000000008D
:10015000000000000000000000000000000000009F
:10016000000000000000000000000000070200087E
:10017000070200080000000000000000000000006E
:10018000000000000702000800000000000000005E
:10019000000000000000000000000000000000005F
:1001A000000000000000000007020008070200082D
:1001B000070200080702000807020008000000000C
:1001C000000000000702000800000000000000001E
:1001D0000702000807020008DFF80CD000F02AF838
:1001E00000480047211500081804002006488047F1
:1001F00006480047FEE7FEE7FEE7FEE7FEE7FEE70C
:10020000FEE7FEE7FEE7FEE781140008D9010008DB
:10021000D2B201E000F8012B491EFBD27047002248
:10022000F6E710B513460A4604461946FFF7F0FFF5
:10023000204610BD064C074D06E0E06840F0010383
:1002400094E8070098471034AC42F6D3FFF7C8FF94
:100250007C1500089C150008FEE77047002240F658
:10026000B83306E00021491C89B29942FBD3521CE5
:1002700092B28242F6D3704770B5044600F0F8F8A7
:100280000546601C02D004484068044400F0F0F8C1
:10029000401BA042FAD370BD000000202DE9FC4FA6
:1002A000DFF8A0A1002301250AF1040B03244FF07D
:1002B0000F0C0BF1040EBDE005FA03F632406FD0CF
:1002C0004F68012F05D0022F03D0112F01D0122F1C
:1002D00017D1D0F808905F0004FA07F829EA080956
:1002E0000097D1F80C8008FA07F848EA0908C0F826
:1002F00008804768B7430E79C6F300169E403E4318
:100300004660C6684FEA430804FA08F7BE430197FF
:100310008F6807FA08F73743C7604E68022E01D08E
:10032000122E13D1DE0800EB86060096366A5F07B0
:10033000FF0E0CFA07F926EA0906D1F8109009FA1F
:1003400007F949EA0609009EC6F820900668019F51
:10035000BE430F7907F0030707FA08F73743076032
:100360004E68F60065D5384E376E47F001073766A0
:10037000366E23F0030706F001060096334E3E4426
:10038000B146B6689F074FEA17780CFA08F7BE43E4
:10039000B0F1904F05D02E4FB84204D1012717E09D
:1003A00047E0002714E02B4FB84201D102270FE0AD
:1003B000294FB84201D103270AE0284FB84201D1A2
:1003C000042705E0264FB84201D1052700E00627A3
:1003D00007FA08F73743C9F80870DAF8006057469B
:1003E000D1F8048096435FEAC83800D516433E60D2
:1003F000DBF800605F46D1F8048096435FEA8838F6
:1004000000D516433E60DEF800607746D1F80480E0
:1004100096435FEAC82800D516433E60094F0C3763
:100420003E68D1F8048096435FEA882800D51643D9
:100430003E605B1C0A6832FA03F67FF43DAFBDE80C
:10044000FC8F000000040140001002400000014049
:100450000004004800080048000C00480010004854
:10046000001400480AB18161704781627047000042
:100470000148806870470000000000200248816841
:1004800042681144816070470000002010B50024CC
:10049000032000F065F8002000F008F808B10124FE
:1004A00001E000F025F8204610BD000070B50E4EAA
:1004B00005460024706898B14FF47A71B1FBF0F0F2
:1004C0000A490968B1FBF0F000F0EEFB40B9102DCD
:1004D00006D200222946501E00F022F8356000E0C6
:1004E0000124204670BD0000000000200C00002008
:1004F0000A4882B0016E41F001010166016E01F00F
:1005000001010091816D41F080518165806D00F0A5
:100510008050009002B000F093B80000001002403C
:10052000F0B40E4B1B680C46C3F30223C3F107055E
:10053000042D00D90425191D072901D2002300E04C
:10054000DB1E012606FA05F1491E214099409E4016
:10055000761E16403143F0BC00F0A1BF0CED00E068
:10056000064900F0070208684FF6FF03184040EA0A
:100570000220034A10430860704700000CED00E0C1
:100580000000FA052B492C4B0A6832214A432B49BB
:1005900040B1B0F5007F086829D020F4C06040F475
:1005A00080602CE00868C0F34120022804D051F894
:1005B000800F20F4807022E0D1F8800020F4807059
:1005C000C1F88000086820F4C06040F40070086042
:1005D000B2FBF3F0401C00E0401E4A69520501D511
:1005E0000028F9D1486940050AD503207047C0F3B7
:1005F0004120022806D051F8800F40F48070086036
:1006000000207047D1F8800040F48070C1F880006D
:10061000086820F4C06040F400700860B2FBF3F09A
:10062000401C00E0401E4A695205DBD50028F9D184
:10063000D8E700000C00002040420F00007000408E
:100640000248816841F48041816070470070004039
:100650002DE9F0470E4605004FF0000725D0DFF8E2
:10066000AC81D8F8000000F00F00B0420CD2D8F8EE
:10067000001021F00F013143C8F80010D8F8000035
:1006800000F00F00B04210D12968614CC80741F258
:10069000883A5AD06868DFF87C91032808D002288D
:1006A00020682DD0400500282CDB0120BDE8F08714
:1006B00020688001F9D5E06800F00302E068C0F32B
:1006C0000310401C032A19D0534A00BFB2FBF0F0BC
:1006D000E268C2F306225043E268C2F34162521C50
:1006E0005200B0FBF2F0484517D9A06810F0F00FA7
:1006F0000CD0880711D5A86840B10EE0474AE5E75D
:100700008003D0E700F092F8484506D9A06820F0B1
:10071000F00040F08000A0608027A068696820F0A9
:1007200003000843A060FFF7A3FE814606E000BF78
:10073000FFF79EFEA0EB090151453AD8A068696811
:1007400000F00C00B0EB810FF2D12868810714D5BE
:10075000400703D5A06840F4E060A0602878000757
:1007600005D5A06820F4605040F4E060A060A06867
:10077000A96820F0F000084304E0802F03D1A068AE
:1007800020F0F000A060D8F80010404601F00F0102
:10079000B14216D9016821F00F0131430160FFF722
:1007A00067FE074607E000BFFFF762FEC11B514529
:1007B00001D903207AE7D8F8000000F00F00B0421A
:1007C000F2D12878400705D5A068E96820F4E060F8
:1007D0000843A0602878000706D5A068296920F49E
:1007E000605040EAC100A06000F020F8A1680C4A07
:1007F000C1F30311515C01F01F01C84009490860B1
:1008000009480068BDE8F047FFF750BE00200240ED
:100810000010024000B4C4040024F40000366E014D
:100820006C1500080C00002000000020184910B5CD
:100830008868C0F381021748012A0BD08A68164BDA
:10084000C2F38102022A06D08A68C2F38102032A17
:1008500003D0002010BD184610BDCA6802F0030482
:10086000CA68C2F30312521C032C02D0B0FBF2F090
:1008700001E0B3FBF2F0CA68C968C2F30622504334
:10088000C1F34161491C4900B0FBF1F010BD00000B
:10089000001002400024F40000366E012DE9F843F8
:1008A00004007AD02078FA4DC00747D0A868E968DC
:1008B00000F00C0001F003010C2802D0082817D02A
:1008C00001E0032914D06068B0F5803F17D0B0F57F
:1008D000A02F286817D020F480302860286820F4E2
:1008E000802028606068E0B1FFF7C2FD064614E092
:1008F0002868800322D560680028D2D01EE02868CE
:1009000040F48030EDE740F480202860F7E700BF36
:10091000FFF7AEFD801B642870D828688003F7D5E8
:100920000CE0FFF7A5FD064605E000BFFFF7A0FDC0
:10093000801B6428F0D828688003F7D420788007CB
:100940004CD5A868E96800F00C0001F003010C2800
:1009500002D004280DD001E002290AD0E068002866
:1009600028682BD040F480702860FFF781FD064690
:1009700019E02868400502D5E068002891D0686831
:10098000217C20F0FE4040EA01606860C1480068B8
:10099000FFF78CFD002800D120E076E1FFF768FD2D
:1009A000801B0228B8D828684005F7D56868217CE4
:1009B00020F0FE4040EA016068600FE020F48070A3
:1009C0002860FFF755FD064605E000BFFFF750FD24
:1009D000801B0228A0D828684005F7D4207800079B
:1009E00029D560690028D5F8940013D040F00100A3
:1009F000C5F89400FFF73CFD064606E090E000BF16
:100A0000FFF736FD801B022886D8D5F894008007B2
:100A1000F6D510E020F00100C5F89400FFF728FD9E
:100A2000064604E0FFF724FD801B022878D8D5F89D
:100A300094008007F6D42078400761D5A86D002681
:100A4000C00008D4A86D40F08050A865A86D0126AC
:100A500000F08050009090480168C90511D40168E9
:100A6000804641F480710160FFF702FD074604E013
:100A7000FFF7FEFCC01B022852D8D8F80000C005C2
:100A8000F6D5A068012815D00528D5F8900016D015
:100A900020F00100C5F89000D5F8900020F0040087
:100AA000C5F89000A06841F28838B8B1FFF7E0FCC3
:100AB00007460EE0D5F8900040F00100F0E740F066
:100AC0000400C5F89000F5E7FFF7D2FCC11B4145D3
:100AD00026D8D5F890008007F6D50CE0FFF7C8FCC3
:100AE000074604E0FFF7C4FCC11B414518D8D5F800
:100AF00090008007F6D41EB1A86D20F08050A86544
:100B00002078800629D5A0690028D5F8980013D050
:100B100040F00100C5F89800FFF7AAFC064606E081
:100B200077E000BFFFF7A4FC801B022877D8D5F838
:100B300098008007F6D510E020F00100C5F8980075
:100B4000FFF796FC064604E0FFF792FC801B0228A4
:100B500065D8D5F898008007F6D4E069F0B3A968A5
:100B6000C1F38101032961D00228286820F0807038
:100B700028600BD0E86820F00300E860E868474987
:100B80000840E860FFF774FC04464BE0FFF770FC98
:100B9000064604E0FFF76CFC801B02283FD828685B
:100BA0008001F7D4F4E908016FF00F0202EB0111A4
:100BB0000843218A5204490802EB4151A26841EAE4
:100BC00002210843217D4FF07E42490802EB41613A
:100BD0000843217B40EAC160E96800E062E0304AF6
:100BE00011400843E860286840F080702860E86899
:100BF00040F08070E860FFF73BFC044605E000BF72
:100C0000FFF736FC001B022809D828688001F7D5B9
:100C100048E004E0FFF72CFC001B022802D9032067
:100C2000BDE8F88328688001F4D43BE00128F7D0C0
:100C3000E868226A00F00301914226D1616A00F05F
:100C4000F0020901103991421FD1A26A00F4FE415D
:100C5000B1EB022F19D194F82C2000F07841B1EBC0
:100C6000C26F12D1218E00F4C00249084905A1F5D6
:100C70000011914209D194F8341000F0C060490885
:100C80004906A1F1007181420CD00120C8E70000A3
:100C9000001002400000002000700040FFFFEEFE48
:100CA0000C809F010020BBE710B5401EB0F1807F93
:100CB00001D3012010BD4FF0E02460610F216017C7
:100CC00000F0EDFB0020A06107202061002010BD96
:100CD000FEE7000000B585B014216846FFF79FFAD3
:100CE0004FF6FF70009000200321CDE90201019032
:100CF00069460248FFF7D2FA05B000BD0008004877
:100D000000B585B014216846FFF789FA4FF6FF70E9
:100D1000009001200190032003900020029069467A
:100D20000248FFF7BBFA05B000BD0000000800480C
:100D30002DE9F0410A4E80463068002485B22146F4
:100D4000204600F0C5F800F009F94FF49637404608
:100D500000F0D8F8641CBC42F9D33560BDE8F081DE
:100D60001408004830B587B014216846FFF757FAD9
:100D70001E48C16C41F00401C164C16C01F0040162
:100D80000591C16C41F00101C164C16C01F0010128
:100D90000591C16C41F00201C164C06C012500F0F5
:100DA000020005904FF44870CDE90005002403943B
:100DB000694602940E48FFF771FA280203940090E6
:100DC000CDE901544FF0904469462046FFF766FA9A
:100DD000FFF796FFA06940F48070A06104481830C6
:100DE000016841F40871016007B030BD0010024095
:100DF0000004004870B50D4E306885B2FFF7B2FFB1
:100E0000002000F017F80A4CA080A088A0F502414D
:100E1000303907D000F0FCF9002000F00BF8A0807A
:100E2000356070BD00F06BF9F6E70000140800486B
:100E30001000002070B51D490A6842F400720A6073
:100E40000A6842F480720A60184C103C226842F032
:100E500020022260164A1060086840F020000860F6
:100E600000BF00BF00BF206840F020002060206865
:100E700040F480702060FFF72DFF4FF09041886AAA
:100E800040F48070886200BF00BF00BF0848001FA8
:100E9000006885B2886940F480708861FFF730FF90
:100EA000206840F400702060284670BD2804004887
:100EB0001408004801B504480168BDF8002089B253
:100EC000024B5A80016008BD140800481000002041
:100ED00010B50C460146202000F06EF82146BDE812
:100EE0001040212000F068B801B504480168BDF841
:100EF000002089B2024B1A80016008BD1408004826
:100F000010000020134A116841F40071116011496A
:100F100010390B6843F480730B600B6843F02003B7
:100F20000B600D4B1860106840F02000106000BF8F
:100F300000BF00BF086840F020000860086840F467
:100F40008070086000BF00BF00BF086840F40070F8
:100F500008607047280400481408004814490868CD
:100F600040F400700860086840F480700860104821
:100F70001038026842F0200202600E4B22221A60F2
:100F80000A6842F020020A6000BF00BF00BF01688B
:100F900041F020010160016841F48071016000BFEF
:100FA00000BF00BF016841F400710160704700009C
:100FB0002804004814080048184B10B51A6842F479
:100FC00000721A601A6842F480721A60134A103A6A
:100FD000146844F020041460114C2060186840F03C
:100FE0002000186000BF00BF00BF106840F0200064
:100FF0001060106840F4807010602160186840F044
:101000002000186000BF00BF00BF106840F0200043
:101010001060106840F48070106010BD2804004813
:1010200014080048F0B587B014216846FFF7F7F8B8
:101030002D48C16C41F00401C164C16C01F0040190
:101040000591C16C41F02001C164C16C01F0200127
:101050000591C16C41F00101C164C16C01F0010155
:101060000591C16C41F00201C164C16C01F0020143
:101070000591C16C41F00801C164C06C1B4E00F0C9
:1010800008004FF47F440590012221463046FFF7C7
:10109000E9F9174F012204213846FFF7E3F901254A
:1010A000CDE9004500240294694630460394FFF7D9
:1010B000F5F8CDE9005469464FF090400295FFF7EE
:1010C000EDF807208DE8310069460A48FFF7E6F899
:1010D00004200090CDE90154694638460394FFF797
:1010E000DDF807B0F0BD0000001002400008004825
:1010F000000C004800040048FEE7FEE7704730B5EA
:1011000001210020FFF758FF4FF47A70FFF7A6F88F
:1011100000210120FFF750FF41F290711020FFF7EE
:101120004BFF4FF41C516020FFF746FF0121612067
:10113000FFF742FF02214620FFF73EFF48F2100171
:101140001320FFF739FF48F2FE011220FFF734FFAA
:101150004FF4A0610220FFF72FFF41F2300103207E
:10116000FFF72AFF40F2033421463020FFF724FF27
:1011700021463120FFF720FF21463220FFF71CFFD8
:10118000E51E29463320FFF717FF03213420FFF720
:1011900013FF21463520FFF70FFF14213620FFF7FC
:1011A0000BFF21463720FFF707FF21463820FFF7C6
:1011B00003FF21463920FFF7FFFE29463A20FFF7BB
:1011C000FBFE03213B20FFF7F7FE21463C20FFF703
:1011D000F3FE4FF4A0513D20FFF7EEFE4FF40071F7
:1011E0009220FFF7E9FE21469320FFF7E5FE40F647
:1011F0000D019020FFF7E0FE41F218010320FFF7F8
:10120000DBFEBDE8304040F273110720FFF7D4BE8B
:1012100010B543F20801E320FFF7CEFE1221E720CC
:10122000FFF7CAFE41F23121EF20FFF7C5FE002192
:101230000120FFF7C1FE4FF4E0610220FFF7BCFE82
:1012400041F230010320FFF7B7FE00210420FFF731
:10125000B3FE40F207210820FFF7AEFE002109206F
:10126000FFF7AAFE00210A20FFF7A6FE00210C20AE
:10127000FFF7A2FE00210D20FFF79EFE00210F20A8
:10128000FFF79AFE00211020FFF796FE072111209C
:10129000FFF792FE00211220FFF78EFE002113209F
:1012A000FFF78AFEC820FEF7E7FF41F290611020A9
:1012B000FFF782FE40F227211120FFF77DFE32204A
:1012C000FEF7DAFF1D211220FFF776FE3220FEF72F
:1012D000D3FF4FF400611320FFF76EFE1421292085
:1012E000FFF76AFE0B212B20FFF766FE3220FEF788
:1012F000C3FF00212020FFF75FFE00212120FFF720
:101300005BFE07213020FFF757FE40F207713120C6
:10131000FFF752FE06213220FFF74EFE40F2047125
:101320003520FFF749FE41F604713620FFF744FEF1
:1013300004213720FFF740FE00213820FFF73CFE54
:1013400040F206713920FFF737FE40F201713C2070
:10135000FFF732FE0F213D20FFF72EFE0021502027
:10136000FFF72AFEEF215120FFF726FE0021522031
:10137000FFF722FE40F23F115320FFF71DFE4FF40E
:101380001C516020FFF718FE01216120FFF714FEB9
:1013900000216A20FFF710FE00218020FFF70CFEDD
:1013A00000218120FFF708FE00218220FFF704FEC4
:1013B00000218320FFF700FE00218420FFF7FCFDC1
:1013C00000218520FFF7F8FD10219020FFF7F4FDA4
:1013D00000219220FFF7F0FD03219320FFF7ECFDA1
:1013E0004FF488719520FFF7E7FD00219720FFF764
:1013F000E3FD00219820FFF7DFFD41F218010320F3
:10140000FFF7DAFDBDE8104040F273110720FFF747
:10141000D3BD7047FFF732B810B594B03821684695
:10142000FEF7FDFE14210EA8FEF7F9FE4FF4007042
:10143000FFF7A8F801200090000401900220032487
:10144000CDE907041421CDE90A100C900D90099400
:101450006846FFF723FA08B172B6FEE70F20CDE920
:101460000E04002010901190129002210EA8FFF798
:10147000EFF8002801D072B6FEE714B010BD0000EE
:101480000548016841F47001016003494FF00060B4
:10149000803908607047000088ED00E0FEE709072A
:1014A000090E002804DB00F1E02080F800147047EA
:1014B00000F00F0000F1E02080F8141D704702E0FA
:1014C00008C8121F08C1002AFAD1704770470020CF
:1014D00001E001C1121F002AFBD1704770B50E4E0A
:1014E0000D460446012204213046FEF7BBFF4FF4AF
:1014F0008070641EA040094B81B20DB1002200E053
:1015000001221846FEF7AEFF3046BDE870400022CB
:101510000421FEF7A7BF0000000C004800080048A7
:10152000FEF7B4FFFFF778FFFFF77CFD00220421F0
:101530000D48FEF797FFFFF75DFC0020FFF7F8FB73
:101540000020FFF7B7FC4FF6FF70FFF7CDFC01213D
:101550000846FFF7C3FF01210420FFF7BFFF012169
:101560000820FFF7BBFFF2E7000C00480000000076
:101570000000000001020304060708099C1500088A
:101580000000002018000000BE140008B415000878
:101590001800002000040000CE1400081000000015
:1015A00001000000000000000024F4000000FFFF24
:0415B0000000000037
:04000005080001D915
:00000001FF
