:020000040800F2
:1000000060040020ED010008B31000081110000882
:10001000B11000085902000839150008000000005E
:10002000000000000000000000000000B710000801
:100030005B02000800000000B5100008B9100008BD
:10004000070200080702000807020008070200086C
:10005000070200080702000807020008070200085C
:10006000070200080702000807020008070200084C
:10007000070200080702000807020008070200083C
:10008000070200080000000007020008070200083D
:10009000070200080702000807020008070200081C
:1000A000070200080702000807020008070200080C
:1000B00007020008070200080702000807020008FC
:1000C00007020008070200080702000807020008EC
:1000D00007020008070200080702000807020008DC
:1000E00007020008070200080702000807020008CC
:1000F00007020008070200080702000800000000CD
:1001000000000000070200080000000007020008CD
:1001100007020008000000000702000807020008AC
:10012000070200080702000807020008070200088B
:10013000070200080000000000000000070200089D
:10014000070200080702000800000000000000008D
:10015000000000000000000000000000000000009F
:10016000000000000000000000000000070200087E
:10017000070200080000000000000000000000006E
:10018000000000000702000800000000000000005E
:10019000000000000000000000000000000000005F
:1001A000000000000000000007020008070200082D
:1001B000070200080702000807020008000000000C
:1001C000000000000702000800000000000000001E
:1001D0000702000807020008DFF80CD000F02AF838
:1001E0000048004779150008600400200648804751
:1001F00006480047FEE7FEE7FEE7FEE7FEE7FEE70C
:10020000FEE7FEE7FEE7FEE725110008D90100083A
:10021000D2B201E000F8012B491EFBD27047002248
:10022000F6E710B513460A4604461946FFF7F0FFF5
:10023000204610BD064C074D06E0E06840F0010383
:1002400094E8070098471034AC42F6D3FFF7C8FF94
:10025000AC150008CC150008FEE7704772B6FEE743
:100260002DE9FC4FDFF8A0A1002301250AF1040BC2
:1002700003244FF00F0C0BF1040EBDE005FA03F65A
:1002800032406FD04F68012F05D0022F03D0112FBD
:1002900001D0122F17D1D0F808905F0004FA07F8A8
:1002A00029EA08090097D1F80C8008FA07F848EA0B
:1002B0000908C0F808804768B7430E79C6F30016EE
:1002C0009E403E434660C6684FEA430804FA08F77A
:1002D000BE4301978F6807FA08F73743C7604E6837
:1002E000022E01D0122E13D1DE0800EB86060096F6
:1002F000366A5F07FF0E0CFA07F926EA0906D1F8FD
:10030000109009FA07F949EA0609009EC6F82090FC
:100310000668019FBE430F7907F0030707FA08F745
:10032000374307604E68F60065D5384E376E47F0A4
:1003300001073766366E23F0030706F001060096C4
:10034000334E3E44B146B6689F074FEA17780CFA21
:1003500008F7BE43B0F1904F05D02E4FB84204D1FC
:10036000012717E047E0002714E02B4FB84201D1E6
:1003700002270FE0294FB84201D103270AE0284F96
:10038000B84201D1042705E0264FB84201D1052724
:1003900000E0062707FA08F73743C9F80870DAF8CB
:1003A00000605746D1F8048096435FEAC83800D50C
:1003B00016433E60DBF800605F46D1F80480964348
:1003C0005FEA883800D516433E60DEF80060774665
:1003D000D1F8048096435FEAC82800D516433E60F2
:1003E000094F0C373E68D1F8048096435FEA8828AD
:1003F00000D516433E605B1C0A6832FA03F67FF4B0
:100400003DAFBDE8FC8F0000000401400010024039
:10041000000001400004004800080048000C0048AB
:100420000010004800140048014880687047000030
:1004300000000020024881684268114481607047D2
:100440000000002010B50024032000F065F8002013
:1004500000F008F808B1012401E000F025F820467A
:1004600010BD000070B50E4E05460024706898B1AE
:100470004FF47A71B1FBF0F00A490968B1FBF0F072
:1004800000F0EEFB40B9102D06D200222946501E86
:1004900000F022F8356000E00124204670BD000025
:1004A000000000200C0000200A4882B0016E41F0DC
:1004B00001010166016E01F001010091816D41F0C1
:1004C00080518165806D00F08050009002B000F096
:1004D00093B8000000100240F0B40E4B1B680C46AD
:1004E000C3F30223C3F10705042D00D90425191D08
:1004F000072901D2002300E0DB1E012606FA05F1E0
:10050000491E214099409E40761E16403143F0BC62
:1005100001F013B80CED00E0064900F0070208688E
:100520004FF6FF03184040EA0220034A10430860D8
:10053000704700000CED00E00000FA052B492C4B41
:100540000A6832214A432B4940B1B0F5007F086860
:1005500029D020F4C06040F480602CE00868C0F32B
:100560004120022804D051F8800F20F4807022E04E
:10057000D1F8800020F48070C1F88000086820F471
:10058000C06040F400700860B2FBF3F0401C00E073
:10059000401E4A69520501D50028F9D14869400535
:1005A0000AD503207047C0F34120022806D051F835
:1005B000800F40F48070086000207047D1F8800000
:1005C00040F48070C1F88000086820F4C06040F4F6
:1005D00000700860B2FBF3F0401C00E0401E4A6966
:1005E0005205DBD50028F9D1D8E700000C00002027
:1005F00040420F00007000400248816841F4804191
:1006000081607047007000402DE9F0470E460500FC
:100610004FF0000725D0DFF8AC81D8F8000000F0DB
:100620000F00B0420CD2D8F8001021F00F01314376
:10063000C8F80010D8F8000000F00F00B04210D148
:100640002968614CC80741F2883A5AD06868DFF8D7
:100650007C91032808D0022820682DD0400500286E
:100660002CDB0120BDE8F08720688001F9D5E06827
:1006700000F00302E068C0F30310401C032A19D005
:10068000534A00BFB2FBF0F0E268C2F306225043C7
:10069000E268C2F34162521C5200B0FBF2F04845DE
:1006A00017D9A06810F0F00F0CD0880711D5A868F2
:1006B00040B10EE0474AE5E78003D0E700F092F84A
:1006C000484506D9A06820F0F00040F08000A06006
:1006D0008027A068696820F003000843A060FFF746
:1006E000A3FE814606E000BFFFF79EFEA0EB0901D6
:1006F00051453AD8A068696800F00C00B0EB810F52
:10070000F2D12868810714D5400703D5A06840F4CA
:10071000E060A0602878000705D5A06820F460504C
:1007200040F4E060A060A068A96820F0F0000843F1
:1007300004E0802F03D1A06820F0F000A060D8F87A
:100740000010404601F00F01B14216D9016821F0B6
:100750000F0131430160FFF767FE074607E000BF66
:10076000FFF762FEC11B514501D903207AE7D8F893
:10077000000000F00F00B042F2D12878400705D504
:10078000A068E96820F4E0600843A06028780007CA
:1007900006D5A068296920F4605040EAC100A06035
:1007A00000F020F8A1680C4AC1F30311515C01F07C
:1007B0001F01C8400949086009480068BDE8F047C2
:1007C000FFF750BE002002400010024000B4C404F5
:1007D0000024F40000366E019C1500080C00002077
:1007E00000000020184910B58868C0F3810217483E
:1007F000012A0BD08A68164BC2F38102022A06D066
:100800008A68C2F38102032A03D0002010BD184673
:1008100010BDCA6802F00304CA68C2F30312521C76
:10082000032C02D0B0FBF2F001E0B3FBF2F0CA6897
:10083000C968C2F306225043C1F34161491C490013
:10084000B0FBF1F010BD0000001002400024F400E5
:1008500000366E012DE9F84304007AD02078FA4D75
:10086000C00747D0A868E96800F00C0001F0030158
:100870000C2802D0082817D001E0032914D06068A2
:10088000B0F5803F17D0B0F5A02F286817D020F41E
:1008900080302860286820F4802028606068E0B1FB
:1008A000FFF7C2FD064614E02868800322D5606881
:1008B0000028D2D01EE0286840F48030EDE740F4F4
:1008C00080202860F7E700BFFFF7AEFD801B64289B
:1008D00070D828688003F7D50CE0FFF7A5FD064621
:1008E00005E000BFFFF7A0FD801B6428F0D8286852
:1008F0008003F7D4207880074CD5A868E96800F019
:100900000C0001F003010C2802D004280DD001E0F6
:1009100002290AD0E068002828682BD040F48070B3
:100920002860FFF781FD064619E02868400502D5DA
:10093000E068002891D06868217C20F0FE4040EA01
:1009400001606860C1480068FFF78CFD002800D195
:1009500020E076E1FFF768FD801B0228B8D8286800
:100960004005F7D56868217C20F0FE4040EA016030
:1009700068600FE020F480702860FFF755FD0646A0
:1009800005E000BFFFF750FD801B0228A0D82868B3
:100990004005F7D42078000729D560690028D5F8EC
:1009A000940013D040F00100C5F89400FFF73CFD1F
:1009B000064606E090E000BFFFF736FD801B0228E8
:1009C00086D8D5F894008007F6D510E020F0010015
:1009D000C5F89400FFF728FD064604E0FFF724FD64
:1009E000801B022878D8D5F894008007F6D42078A8
:1009F000400761D5A86D0026C00008D4A86D40F05E
:100A00008050A865A86D012600F0805000909048A5
:100A10000168C90511D40168804641F48071016004
:100A2000FFF702FD074604E0FFF7FEFCC01B0228AB
:100A300052D8D8F80000C005F6D5A068012815D016
:100A40000528D5F8900016D020F00100C5F89000D8
:100A5000D5F8900020F00400C5F89000A06841F29D
:100A60008838B8B1FFF7E0FC07460EE0D5F89000F3
:100A700040F00100F0E740F00400C5F89000F5E711
:100A8000FFF7D2FCC11B414526D8D5F8900080075E
:100A9000F6D50CE0FFF7C8FC074604E0FFF7C4FCFE
:100AA000C11B414518D8D5F890008007F6D41EB177
:100AB000A86D20F08050A8652078800629D5A0690F
:100AC0000028D5F8980013D040F00100C5F8980030
:100AD000FFF7AAFC064606E077E000BFFFF7A4FC9C
:100AE000801B022877D8D5F898008007F6D510E04B
:100AF00020F00100C5F89800FFF796FC064604E0D8
:100B0000FFF792FC801B022865D8D5F89800800773
:100B1000F6D4E069F0B3A968C1F38101032961D07B
:100B20000228286820F0807028600BD0E86820F048
:100B30000300E860E86847490840E860FFF774FC94
:100B400004464BE0FFF770FC064604E0FFF76CFC40
:100B5000801B02283FD828688001F7D4F4E90801F7
:100B60006FF00F0202EB01110843218A5204490879
:100B700002EB4151A26841EA02210843217D4FF076
:100B80007E42490802EB41610843217B40EAC16093
:100B9000E96800E062E0304A11400843E8602868F4
:100BA00040F080702860E86840F08070E860FFF7EF
:100BB0003BFC044605E000BFFFF736FC001B0228A3
:100BC00009D828688001F7D548E004E0FFF72CFC3D
:100BD000001B022802D90320BDE8F88328688001A1
:100BE000F4D43BE00128F7D0E868226A00F0030162
:100BF000914226D1616A00F0F00209011039914258
:100C00001FD1A26A00F4FE41B1EB022F19D194F872
:100C10002C2000F07841B1EBC26F12D1218E00F48C
:100C2000C00249084905A1F50011914209D194F883
:100C3000341000F0C06049084906A1F100718142FA
:100C40000CD00120C8E70000001002400000002086
:100C500000700040FFFFEEFE0C809F010020BBE70C
:100C600010B5401EB0F1807F01D3012010BD4FF0C0
:100C7000E02460610F21601700F05FFC0020A0619C
:100C800007202061002010BDF0B590F83C20012A1B
:100C90003AD0012580F83C50022280F83D200368BC
:100CA0005A689C68194E1A4FB34201D0BB4204D116
:100CB00022F4700C4A6842EA0C02DFF858C002EADB
:100CC0000C02D1F800C04CEA020CC3F804C0026860
:100CD000B2420DD0B2F1804F0AD00F4B9A4207D0EA
:100CE0000E4B9A4204D0BA4202D00D4B9A4204D124
:100CF000896824F080031943916080F83D500021F9
:100D000080F83C100846F0BD0220F0BD002C0140E8
:100D1000003401408FFFFFFD000400400008004048
:100D20000040014010B586B0044614216846FFF724
:100D300076FA2068B0F1804F15D10C48C16C41F0B3
:100D40000101C164C06C694600F0010005900220F9
:100D500000900190002002900390012004904FF039
:100D60009040FFF77DFA06B010BD00000010024071
:100D700070B5044690F83C000D4601280BD00120C8
:100D800084F83C000C2A45D007DC5AB1042A1BD059
:100D9000082A78D12CE0022070BD102A4ED0142AE7
:100DA00071D15DE0206800F031FA2068816941F07E
:100DB000080181612068816921F004018161206856
:100DC00081692A69114311E0206800F06DFA2068FA
:100DD000816941F4006181612068816921F4806149
:100DE0008161206881692A6941EA022181614AE0C2
:100DF000206800F0A1FA2068C16941F00801C161D2
:100E00002068C16921F00401C1612068C1692A69B3
:100E1000114311E0206800F0D7FA2068C16941F45D
:100E20000061C1612068C16921F48061C1612068ED
:100E3000C1692A6941EA0221C16124E0206800F009
:100E40000BFB2068016D41F0080101652068016D10
:100E500021F0040101652068016D2A69114311E048
:100E6000206800F031FB2068016D41F400610165EC
:100E70002068016D21F4806101652068016D2A6997
:100E800041EA02210165002084F83C0070BD10B5E4
:100E9000040003D094F83D0010B107E0012010BD1C
:100EA000002084F83C00204600F022F8022084F85C
:100EB0003D00211D206800F043F9012084F848001E
:100EC00084F83E0084F83F0084F8400084F8410034
:100ED00084F8420084F8430084F8440084F8450014
:100EE00084F8460084F8470084F83D00002010BDD7
:100EF00008B50068B0F1804F08D10548816D41F018
:100F000001018165806D00F00100009008BD0000C6
:100F10000010024030B50446022269B1042912D003
:100F2000082917D00C291CD0102921D094F843008F
:100F3000012824D0012030BD94F83E000128F9D1C9
:100F400084F83E201DE094F83F000128F2D184F897
:100F50003F2016E094F840000128EBD184F84020AF
:100F60000FE094F841000128E4D184F8412008E022
:100F700094F842000128DDD184F8422001E084F891
:100F800043200122206800F033F9194B20681949E9
:100F9000194A984209D0884207D0904205D0174D8F
:100FA000A84202D0164DA84203D1456C45F4004535
:100FB0004564206898420CD0B0F1804F09D0114BA5
:100FC000984206D0104B984203D0884201D09042FC
:100FD00007D181680D4A1140062906D0B1F5803F3E
:100FE00003D0016841F001010160002030BD000024
:100FF000002C014000340140004001400044014009
:1010000000480140000400400008004007000100C3
:10101000FEE70000094808B5C16C41F02001C16439
:10102000C16C01F020010091C16C41F00101C1646B
:10103000C06C00F00100009008BD000000100240EC
:1010400010B58AB00024079408941C2168460994BE
:10105000FFF7E5F815484FF08041016040F21F317D
:10106000C0E901146321C0E903148461FFF70FFF95
:1010700008B1FFF7F3F8079407A90C480994FFF7A4
:1010800003FE08B1FFF7EAF86020CDE900040294FE
:101090000422694605480494FFF76AFE08B1FFF789
:1010A000DDF80248FFF73EFE0AB010BD1000002038
:1010B000FEE7FEE770477047FFF7BCB910B594B084
:1010C00038216846FFF7ABF814210EA8FFF7A7F800
:1010D0004FF40070FFF732FA0120009000040190F5
:1010E00002200324CDE907041421CDE90A100C9055
:1010F0000D9009946846FFF7ADFB08B172B6FEE7A4
:101100000F20CDE90E0400201090119012900221C2
:101110000EA8FFF779FA002801D072B6FEE714B0E6
:1011200010BD00000548016841F4700101600349E9
:101130004FF00060803908607047000088ED00E0E3
:101140002DE9F0430268234B234D244E244C4FF0ED
:101150008049984207D0484505D0A84203D0B04204
:1011600001D0A04203D122F070074A683A431D4FD4
:10117000DFF874C0DFF8748098420DD048450BD07A
:10118000A84209D0B04207D0A04205D0B84203D04F
:10119000604501D0404503D122F44075CA682A4316
:1011A0004D6922F080022A4302608A68C2620A689E
:1011B0008262984207D0A04205D0B84203D0604571
:1011C00001D0404501D10969016301214161BDE8B8
:1011D000F0830000002C01400004004000080040A3
:1011E00000340140004001400044014000480140FB
:1011F00010B501F01F030121046A99408C43046279
:10120000016A9A401143016210BD00002DE9F043CC
:10121000026A22F001020262056A436882691C4C7C
:1012200025F0020522400C6822F0030214438A686C
:10123000194E2A43174D194FDFF864C0DFF8649048
:10124000A84207D0B04205D0B84203D0604501D0D3
:10125000484506D122F00808CA6842EA080222F08E
:101260000402A84207D0B04205D0B84203D060457E
:1012700001D0484505D14D6923F440731D438B6966
:101280002B4343608461496841630262BDE8F08397
:101290008FFFFEFF002C0140003401400040014060
:1012A0000044014000480140F0B5026A22F01002FB
:1012B0000262056A42688369194C1B4E23400C6820
:1012C00023F4407343EA042425F020038D6843EAA5
:1012D0000513144DA84201D0B04206D1CF6823F0C7
:1012E000800343EA071323F04003A8420AD0B04228
:1012F00008D00E4DA84205D00D4DA84202D00D4D8C
:10130000A84207D14D6922F4406242EA85028D6904
:1013100042EA850242608461496881630362F0BDEC
:10132000FF8FFFFE002C01400034014000400140CF
:101330000044014000480140F0B5026A22F4807286
:101340000262056A4368C269194C1B4E22400C6850
:1013500022F00302144325F400728D6842EA05224C
:10136000144DA84201D0B04206D1CF6822F40062E9
:1013700042EA072222F48062A8420AD0B04208D092
:101380000E4DA84205D00E4DA84202D00D4DA842E8
:1013900007D14D6923F4405343EA05138D6943EAAD
:1013A00005134360C4614968C1630262F0BD000077
:1013B0008FFFFEFF002C014000340140004001403F
:1013C0000044014000480140F0B5026A22F4805216
:1013D0000262056A4268C369194C1B4E23400C68BF
:1013E00023F4407343EA042425F400538D6843EA50
:1013F0000533144DA84201D0B04206D1CF6823F482
:10140000004343EA073323F48043A8420AD0B042A2
:1014100008D00E4DA84205D00D4DA84202D00D4D6A
:10142000A84207D14D6922F4404242EA85128D69F3
:1014300042EA85124260C461496801640362F0BDFA
:10144000FF8FFFFE002C01400034014000400140AE
:10145000004401400048014030B5026A22F4803265
:101460000262046A4268036D114D2B400D681D43F2
:1014700024F400330C8943EA04430E4CA0420BD001
:101480000D4CA04208D00D4CA04205D00C4CA042FF
:1014900002D00C4CA04204D14C6922F4803242EAC2
:1014A00004224260056549688164036230BD000022
:1014B0008FFFFEFF002C014000340140004001403E
:1014C000004401400048014030B5026A22F4801215
:1014D0000262046A4268036D114D24F400142B402B
:1014E0000D6843EA05230D8944EA05540D4DA842D1
:1014F0000BD00D4DA84208D00C4DA84205D00C4D84
:10150000A84202D00B4DA84204D14D6922F480229A
:1015100042EA8522426003654968C164046230BDC5
:10152000FF8FFFFE002C01400034014000400140CD
:101530000044014000480140FEE70907090E002869
:1015400004DB00F1E02080F80014704700F00F0089
:1015500000F1E02080F8141D704702E008C8121F57
:1015600008C1002AFAD170477047002001E001C18C
:10157000121F002AFBD17047FEF764FFFFF79EFDA4
:10158000FFF748FDFFF75CFD04210348FFF7C2FCAD
:10159000322041078863FEE71000002000000000B1
:1015A000000000000102030406070809CC1500082A
:1015B00000000020100000005A150008DC1500088B
:1015C00010000020500400006A1500081000000000
:0C15D00001000000000000000024F400F6
:04000005080001D915
:00000001FF
