:020000040800F2
:1000000018050020ED0100085F19000859180008C4
:100010005D190008F9020008112200080000000024
:10002000000000000000000000000000631900084C
:10003000FB020008000000006119000865190008B3
:10004000070200080702000807020008070200086C
:10005000070200080702000807020008070200085C
:10006000070200080702000807020008070200084C
:10007000070200080702000807020008070200083C
:10008000070200080000000007020008070200083D
:10009000070200080702000807020008070200081C
:1000A000070200080702000807020008070200080C
:1000B00007020008070200080702000807020008FC
:1000C00007020008070200080702000807020008EC
:1000D00007020008052200080702000807020008BE
:1000E00007020008070200080702000807020008CC
:1000F00007020008070200080702000800000000CD
:1001000000000000070200080000000007020008CD
:1001100007020008000000000702000807020008AC
:10012000070200080702000807020008070200088B
:10013000070200080000000000000000070200089D
:10014000070200080702000800000000000000008D
:10015000000000000000000000000000000000009F
:10016000000000000000000000000000070200087E
:10017000070200080000000000000000000000006E
:10018000000000000702000800000000000000005E
:10019000000000000000000000000000000000005F
:1001A000000000000000000007020008070200082D
:1001B000070200080702000807020008000000000C
:1001C000000000000702000800000000000000001E
:1001D0000702000807020008DFF80CD000F07AF8E8
:1001E00000480047A522000818050020064880475F
:1001F00006480047FEE7FEE7FEE7FEE7FEE7FEE70C
:10020000FEE7FEE7FEE7FEE7E9190008D90100086E
:100210002DE9F05F0546002092469B46884606463B
:10022000814640241BE0284641464746224600F0CE
:1002300041F853465A46C01A914110D31146184608
:10024000224600F028F82D1A67EB01084F46224697
:100250000120002100F01FF817EB00094E41201E7D
:10026000A4F10104DFDC484631462A464346BDE896
:10027000F09FD2B201E000F8012B491EFBD270477B
:100280000022F6E710B513460A4604461946FFF762
:10029000F0FF204610BD202A04DB203A00FA02F1CC
:1002A000002070479140C2F1200320FA03F3194364
:1002B00090407047202A04DB203A21FA02F0002106
:1002C000704721FA02F3D040C2F120029140084366
:1002D00019467047064C074D06E0E06840F0010300
:1002E00094E8070098471034AC42F6D3FFF778FF44
:1002F000AC230008CC230008FEE7704772B6FEE787
:1003000070B590F82520002401212346022A07D049
:100310000422C26380F8251080F82430012429E0EB
:100320000268156825F00E0515600268156825F04D
:1003300001051560826C156825F48075156090F8CC
:100340004420056C02F01F0201FA02F26A60D0E953
:1003500013255560426D32B1156825F4807515601E
:10036000D0E91625556080F8251080F82430816B7F
:1003700001B18847204670BD2DE9FC4FDFF8A0A1F0
:10038000002301250AF1040B03244FF00F0C0BF19D
:10039000040EBDE005FA03F632406FD04F68012F1E
:1003A00005D0022F03D0112F01D0122F17D1D0F872
:1003B00008905F0004FA07F829EA08090097D1F8C5
:1003C0000C8008FA07F848EA0908C0F8088047686E
:1003D000B7430E79C6F300169E403E434660C6689A
:1003E0004FEA430804FA08F7BE4301978F6807FAFB
:1003F00008F73743C7604E68022E01D0122E13D182
:10040000DE0800EB86060096366A5F07FF0E0CFAE0
:1004100007F926EA0906D1F8109009FA07F949EA1E
:100420000609009EC6F820900668019FBE430F791A
:1004300007F0030707FA08F7374307604E68F6002E
:1004400065D5384E376E47F001073766366E23F0B4
:10045000030706F001060096334E3E44B146B668E7
:100460009F074FEA17780CFA08F7BE43B0F1904F98
:1004700005D02E4FB84204D1012717E047E00027EE
:1004800014E02B4FB84201D102270FE0294FB842A8
:1004900001D103270AE0284FB84201D1042705E023
:1004A000264FB84201D1052700E0062707FA08F7D2
:1004B0003743C9F80870DAF800605746D1F804806D
:1004C00096435FEAC83800D516433E60DBF800600B
:1004D0005F46D1F8048096435FEA883800D516431A
:1004E0003E60DEF800607746D1F8048096435FEA0C
:1004F000C82800D516433E60094F0C373E68D1F836
:10050000048096435FEA882800D516433E605B1C52
:100510000A6832FA03F67FF43DAFBDE8FC8F0000B5
:1005200000040140001002400000014000040048A7
:1005300000080048000C0048001000480014004863
:100540000148806870470000000000200248816870
:1005500042681144816070470000002010B50024FB
:10056000032000F073F8002000F008F808B101241F
:1005700001E000F025F8204610BD000070B50E4ED9
:1005800005460024706898B14FF47A71B1FBF0F021
:100590000A490968B1FBF0F000F064FD40B9102D84
:1005A00006D200222946501E00F030F8356000E0E7
:1005B0000124204670BD0000000000200C00002037
:1005C0000A4882B0016E41F001010166016E01F03E
:1005D00001010091816D41F080518165806D00F0D5
:1005E0008050009002B000F0A1B80000001002405E
:1005F000002809DB00F01F02012191404009800022
:1006000000F1E020C0F8001170470000F0B40E4B7C
:100610001B680C46C3F30223C3F10705042D00D960
:100620000425191D072901D2002300E0DB1E012645
:1006300006FA05F1491E214099409E40761E16405B
:100640003143F0BC01F0F8BD0CED00E0064900F0CC
:10065000070208684FF6FF03184040EA0220034AE9
:1006600010430860704700000CED00E00000FA0540
:100670002B492C4B0A6832214A432B4940B1B0F533
:10068000007F086829D020F4C06040F480602CE02E
:100690000868C0F34120022804D051F8800F20F4EC
:1006A000807022E0D1F8800020F48070C1F88000D2
:1006B000086820F4C06040F400700860B2FBF3F0FA
:1006C000401C00E0401E4A69520501D50028F9D1BE
:1006D000486940050AD503207047C0F3412002282D
:1006E00006D051F8800F40F48070086000207047F9
:1006F000D1F8800040F48070C1F88000086820F4D0
:10070000C06040F400700860B2FBF3F0401C00E0F1
:10071000401E4A695205DBD50028F9D1D8E7000010
:100720000C00002040420F00007000400248816829
:1007300041F4804181607047007000402DE9F8432A
:100740000446006800269D4D00035ED5A86D002775
:10075000C00008D4A86D40F08050A865A86D01279E
:1007600000F080500090DFF85892D9F8001041F462
:100770008071C9F80010FFF7E3FE804606E000BF75
:10078000FFF7DEFEA0EB080002282BD8D9F8000006
:10079000C005F5D5D5F8900010F4407014D0216C48
:1007A000814211D0D5F89000D5F8901020F4407017
:1007B00041F48031C5F89010D5F8901021F48031C3
:1007C000C5F89010C5F89000C00711D0FFF7B8FE2B
:1007D000804641F2883907E0FFF7B2FEA0EB08013E
:1007E000494501D903260BE0D5F890008007F3D5E1
:1007F000D5F89000216C20F440700843C5F89000B3
:100800001FB1A86D20F08050A8652078C00707D0E0
:10081000D5F88800616820F003000843C5F8880017
:100820002078800707D5D5F88800A16820F00C0053
:100830000843C5F888002078400707D5D5F8880018
:10084000E16820F030000843C5F8880020780007F0
:1008500007D5D5F88800216920F0C0000843C5F805
:1008600088002078800607D5D5F88800616920F4D3
:1008700040600843C5F888002078400607D5D5F8C1
:100880008800A16920F440500843C5F8880020780A
:10089000000607D5D5F88800E16920F440400843F8
:1008A000C5F888002088C00507D5D5F88800216ADA
:1008B00020F440300843C5F888002088800507D51B
:1008C000D5F88800616A20F440200843C5F8880004
:1008D000208840050FD5D5F88800A16A20F4401083
:1008E0000843C5F88800A06AB0F5801F03D1E86806
:1008F00040F48010E860208800050FD5D5F8880006
:10090000E16A20F440000843C5F88800E06AB0F5C9
:10091000800F03D1E86840F48010E8602088C004AC
:100920000FD5D5F88800216B20F040700843C5F83A
:100930008800206BB0F1807F03D1E86840F480101C
:10094000E86020884FF0006180040ED5D5F888005B
:10095000626B20F040601043C5F88800606B8842ED
:1009600003D1E86840F48010E860208840040ED588
:10097000D5F88800A26B20F040601043C5F88800CD
:10098000A06B884203D1E86840F48010E8602088BA
:1009900000040FD5D5F88800E16B20F040500843E3
:1009A000C5F88800E06BB0F1805F03D1E86840F4DF
:1009B0008030E8603046BDE8F88300000010024057
:1009C000007000402DE9F0470E4605004FF000078B
:1009D00025D0DFF8AC81D8F8000000F00F00B0425D
:1009E0000CD2D8F8001021F00F013143C8F80010E4
:1009F000D8F8000000F00F00B04210D12968614C17
:100A0000C80741F2883A5AD06868DFF87C91032819
:100A100008D0022820682DD0400500282CDB0120BA
:100A2000BDE8F08720688001F9D5E06800F0030296
:100A3000E068C0F30310401C032A19D0534A00BFDA
:100A4000B2FBF0F0E268C2F306225043E268C2F360
:100A50004162521C5200B0FBF2F0484517D9A06821
:100A600010F0F00F0CD0880711D5A86840B10EE047
:100A7000474AE5E78003D0E700F0B6F8484506D9D5
:100A8000A06820F0F00040F08000A0608027A068FF
:100A9000696820F003000843A060FFF751FD81461C
:100AA00006E000BFFFF74CFDA0EB090151453AD825
:100AB000A068696800F00C00B0EB810FF2D12868E3
:100AC000810714D5400703D5A06840F4E060A0601A
:100AD0002878000705D5A06820F4605040F4E06055
:100AE000A060A068A96820F0F000084304E0802F0F
:100AF00003D1A06820F0F000A060D8F800104046B4
:100B000001F00F01B14216D9016821F00F01314304
:100B10000160FFF715FD074607E000BFFFF710FD76
:100B2000C11B514501D903207AE7D8F8000000F035
:100B30000F00B042F2D12878400705D5A068E968D7
:100B400020F4E0600843A0602878000706D5A0687C
:100B5000296920F4605040EAC100A06000F044F828
:100B6000A1680C4AC1F30311515C01F01F01C84098
:100B70000949086009480068BDE8F047FFF7FEBC76
:100B8000002002400010024000B4C4040024F4001D
:100B900000366E01942300080C00002000000020A5
:100BA0000548064900688968054AC1F30221515C7D
:100BB00001F01F01C84070470C00002000100240E7
:100BC000A42300080548064900688968054AC1F35E
:100BD000C221515C01F01F01C84070470C00002089
:100BE00000100240A4230008184910B58868C0F31B
:100BF00081021748012A0BD08A68164BC2F3810282
:100C0000022A06D08A68C2F38102032A03D0002098
:100C100010BD184610BDCA6802F00304CA68C2F3CA
:100C20000312521C032C02D0B0FBF2F001E0B3FB24
:100C3000F2F0CA68C968C2F306225043C1F34161A9
:100C4000491C4900B0FBF1F010BD0000001002404B
:100C50000024F40000366E012DE9F84304007AD038
:100C60002078FA4DC00747D0A868E96800F00C006A
:100C700001F003010C2802D0082817D001E0032955
:100C800014D06068B0F5803F17D0B0F5A02F286869
:100C900017D020F480302860286820F48020286055
:100CA0006068E0B1FFF74CFC064614E0286880035A
:100CB00022D560680028D2D01EE0286840F4803039
:100CC000EDE740F480202860F7E700BFFFF738FC2D
:100CD000801B642870D828688003F7D50CE0FFF7E4
:100CE0002FFC064605E000BFFFF72AFC801B6428A6
:100CF000F0D828688003F7D4207880074CD5A868FE
:100D0000E96800F00C0001F003010C2802D004286F
:100D10000DD001E002290AD0E068002828682BD015
:100D200040F480702860FFF70BFC064619E0286845
:100D3000400502D5E068002891D06868217C20F049
:100D4000FE4040EA01606860C1480068FFF716FC99
:100D5000002800D120E076E1FFF7F2FB801B02289B
:100D6000B8D828684005F7D56868217C20F0FE4097
:100D700040EA016068600FE020F480702860FFF7AF
:100D8000DFFB064605E000BFFFF7DAFB801B022809
:100D9000A0D828684005F7D42078000729D56069D5
:100DA0000028D5F8940013D040F00100C5F8940055
:100DB000FFF7C6FB064606E090E000BFFFF7C0FB6A
:100DC000801B022886D8D5F894008007F6D510E05D
:100DD00020F00100C5F89400FFF7B2FB064604E0DE
:100DE000FFF7AEFB801B022878D8D5F89400800767
:100DF000F6D42078400761D5A86D0026C00008D43D
:100E0000A86D40F08050A865A86D012600F08050C4
:100E1000009090480168C90511D40168804641F4EA
:100E200080710160FFF78CFB074604E0FFF788FB49
:100E3000C01B022852D8D8F80000C005F6D5A0681B
:100E4000012815D00528D5F8900016D020F0010013
:100E5000C5F89000D5F8900020F00400C5F8900087
:100E6000A06841F28838B8B1FFF76AFB07460EE088
:100E7000D5F8900040F00100F0E740F00400C5F81C
:100E80009000F5E7FFF75CFBC11B414526D8D5F87C
:100E900090008007F6D50CE0FFF752FB074604E010
:100EA000FFF74EFBC11B414518D8D5F890008007CD
:100EB000F6D41EB1A86D20F08050A8652078800679
:100EC00029D5A0690028D5F8980013D040F001007A
:100ED000C5F89800FFF734FB064606E077E000BF50
:100EE000FFF72EFB801B022877D8D5F898008007E3
:100EF000F6D510E020F00100C5F89800FFF720FBC0
:100F0000064604E0FFF71CFB801B022865D8D5F8D5
:100F100098008007F6D4E069F0B3A968C1F38101B5
:100F2000032961D00228286820F0807028600BD047
:100F3000E86820F00300E860E86847490840E86096
:100F4000FFF7FEFA04464BE0FFF7FAFA064604E024
:100F5000FFF7F6FA801B02283FD828688001F7D4F3
:100F6000F4E908016FF00F0202EB01110843218A36
:100F70005204490802EB4151A26841EA02210843A8
:100F8000217D4FF07E42490802EB41610843217BFD
:100F900040EAC160E96800E062E0304A114008437D
:100FA000E860286840F080702860E86840F0807051
:100FB000E860FFF7C5FA044605E000BFFFF7C0FA96
:100FC000001B022809D828688001F7D548E004E012
:100FD000FFF7B6FA001B022802D90320BDE8F88308
:100FE00028688001F4D43BE00128F7D0E868226A41
:100FF00000F00301914226D1616A00F0F00209017C
:10100000103991421FD1A26A00F4FE41B1EB022FC8
:1010100019D194F82C2000F07841B1EBC26F12D1B5
:10102000218E00F4C00249084905A1F50011914242
:1010300009D194F8341000F0C06049084906A1F1C4
:10104000007181420CD00120C8E70000001002406E
:101050000000002000700040FFFFEEFE0C809F01AA
:101060000020BBE710B5401EB0F1807F01D3012006
:1010700010BD4FF0E02460610F21601701F0DCF833
:101080000020A06107202061002010BDF0B590F87D
:101090003C20012A3AD0012580F83C50022280F8F9
:1010A0003D2003685A689C68194E1A4FB34201D01C
:1010B000BB4204D122F4700C4A6842EA0C02DFF809
:1010C00058C002EA0C02D1F800C04CEA020CC3F886
:1010D00004C00268B2420DD0B2F1804F0AD00F4B6B
:1010E0009A4207D00E4B9A4204D0BA4202D00D4B1E
:1010F0009A4204D1896824F080031943916080F8F2
:101100003D50002180F83C100846F0BD0220F0BDA3
:10111000002C0140003401408FFFFFFD000400401F
:10112000000800400040014010B5040003D094F8CE
:101130003D0010B107E0012010BD002084F83C0004
:10114000204600F023F8022084F83D00211D20688D
:1011500000F058FC012084F8480084F83E0084F830
:101160003F0084F8400084F8410084F8420084F88D
:10117000430084F8440084F8450084F8460084F86D
:10118000470084F83D00002010BD000008B500684D
:101190000649884208D10648816D41F00401816505
:1011A000806D00F00400009008BD000000080040C1
:1011B0000010024090F83D10012901D00120704735
:1011C000022180F83D1000680F4988420ED0B0F12E
:1011D000804F0BD00D49884208D00D49884205D078
:1011E0000C49884202D00C49884207D181680B4AD9
:1011F0001140062906D0B1F5803F03D0016841F0C7
:101200000101016000207047002C014000040040F3
:101210000008004000340140004001400700010088
:1012200070B5044690F83C00012814D0012584F8DC
:101230003C50022084F83D0022689068344B1840EE
:1012400020F47F4090600868702827D010DC10F0F0
:101250000F0F03D04AE04FF0020070BD4FEA20129A
:10126000072A43D2DFE802F050505050483139008D
:10127000284BC21A984247D009DCB0F5805F35D0C0
:10128000B0F5005F15D0B0F1101F2FD13CE0102A4F
:101290003AD0202A38D0502A28D135E0CB68D1E97D
:1012A0000121206800F006FC2068816841F0770188
:1012B00009E0CB68D1E90121206800F0FBFB206840
:1012C000816841F48041816010E0CA684968206803
:1012D00000F004FC5021206806E0CA6849682068D4
:1012E00000F00DFC6021206800F0EEFB84F83D501A
:1012F000002084F83C0070BDCA684968206800F08E
:10130000EDFB40212068EFE7226801461046EBE73D
:1013100088FFCEFF2000100090F87C10012918D023
:10132000012180F87C102421C0F8801050F8601B47
:101330000A680B6823F001030B6022F000510022C1
:10134000426050F8603C196020210162027710462B
:10135000704702207047704770B5044690F87C00D3
:1013600001281DD0012084F87C002420C4F88000CE
:1013700020680568026822F0010202602068826825
:1013800022F060620A438260204600F0CBFB2068B6
:1013900005602020C4F88000002084F87C0070BD27
:1013A000022070BD70B5044690F87C0001281DD065
:1013B000012084F87C002420C4F88000206805689F
:1013C000026822F0010202602068826822F0604216
:1013D0000A438260204600F0A5FB206805602020BB
:1013E000C4F88000002084F87C0070BD022070BD2D
:1013F00070477047704700002DE9F04103680446CC
:10140000D86919689A6840F60F0528424FF0000520
:1014100009D186067ED501F0200602F080573E43B2
:1014200078D0E16E9EE0624E624F16400F40374327
:1014300070D0C70709D0CF0507D501271F62D4F8A0
:10144000883043F00103C4F8883083070AD5D307F6
:1014500008D0276802233B62D4F8883043F00403A5
:10146000C4F8883043070AD5D30708D02768042377
:101470003B62D4F8883043F00203C4F88830030795
:101480000CD501F02003334308D0266808233362CB
:10149000D4F8883043F00803C4F8883003050BD52E
:1014A0004B0109D526684FF400633362D4F88830C5
:1014B00043F02003C4F88830D4F88830002B34D0AF
:1014C000800609D501F0200002F08051084303D0C6
:1014D000E16E09B120468847D4F888002168896800
:1014E000490602D410F0280F21D0204600F0EAFB74
:1014F00020688168490615D5816821F04001816026
:10150000A06F78B12C498163A06FFEF7F9FE002827
:101510000BD000E011E0A06F816B00E02046BDE839
:10152000F04108472046FFF765FFBDE8F0812046FF
:10153000FFF760FFC4F88850F7E7C60209D55602E6
:1015400007D54FF4801018622046BDE8F041FFF740
:1015500050BF060609D501F0800602F400021643CA
:1015600003D0216F0029D9D1DFE742060DD54A0605
:101570000BD51968204621F0400119602021C4F8DC
:101580008010256700F067F9CFE7020206D54A0010
:1015900004D52046BDE8F041FFF72ABFC001C4D5FD
:1015A0000029C2DA2046BDE8F041FFF7D4BE0000B2
:1015B0000100001020010004AF1C000810B5040059
:1015C00003D0D4F8800010B107E0012010BD002046
:1015D00084F87C00204600F027F82420C4F880001E
:1015E0002068016821F001010160204600F07CFCC8
:1015F0000128EBD0A06A10B1204600F0C5FA20689F
:10160000416821F4904141602068816821F02A01FD
:1016100081602068016841F0010101602046BDE859
:10162000104000F015BB000010B586B00446142130
:101630006846FEF725FE17492068884227D11648DC
:10164000016E41F480410166016E01F48041059113
:10165000C16C41F00101C164C06C694600F0010039
:1016600005904FF4C060009002200190002002908D
:101670000390072004904FF09040FEF77DFE00227B
:1016800011462520FEF7C2FF2520FEF7B1FF06B068
:1016900010BD0000003801400010024070B5D0F8C5
:1016A0008430202B6DD1B9B1B2B190F87C30012BD0
:1016B00067D0012380F87C308165A0F85C20A0F819
:1016C0005E200021C16683684FF48056FF24B34238
:1016D00007D1036913B11CE0012070BD40F2FF1374
:1016E0001DE07F259BB1B3F1805F15D0A0F860109D
:1016F000C0F888102223C0F8843003689C6844F046
:1017000001049C60436EB3F1005F0ED027E00369D3
:1017100043B9A0F86040EBE703691BB13F23A0F891
:101720006030E5E7A0F86050E2E7B0F86830934237
:1017300015D88268B24201D1026972B1124AC266FA
:1017400080F87C1001680A6842F480720A600068C0
:10175000816841F0805181600FE00C4AEFE78268B8
:10176000B24201D1026952B1094AC26680F87C10C6
:101770000068016841F490710160002070BD054A65
:10178000F3E7022070BD0000491E0008491D000853
:10179000E91D0008E91C000870472DE9F8430446DC
:1017A000D0F880001F4616460D46202851D1DDB1E5
:1017B000D6B194F87C0001284BD0012084F87C003D
:1017C0004FF00008C4F888802120C4F88000183445
:1017D000FEF7B6FEA6878146E68754F8100C183C43
:1017E000B0F5805F03D004E00120BDE8F8832069F4
:1017F00020B12E46002584F87C8010E00026FAE710
:101800008021204600F0ACFCB8B9C6B116F8010B37
:1018100021688862B4F85600401EA4F85600B4F857
:1018200056004B464FF0000200970028E8D14FF0D9
:101830004001204600F094FC30B10320D5E735F894
:10184000020BC0F30800E3E72020C4F8800000206A
:10185000CBE70220C9E77047FEE70000094808B55A
:10186000C16C41F02001C164C16C01F02001009104
:10187000C16C41F00101C164C06C00F00100009036
:1018800008BD00000010024010B588B000241848C0
:1018900000940194029403940494059413490694CB
:1018A000016041F63F71C0E901144FF6FF71C0E9D4
:1018B00003148461FFF738FC08B1FEF71FFD4FF4F5
:1018C0008050009069460A48FFF7AAFC08B1FEF76D
:1018D00015FD049404A906480694FFF7D7FB0028D9
:1018E00001D0FEF70BFD08B010BD0000000800405D
:1018F00014000020184810B5164901604FF4165125
:101900004160002181600C22C160C0E90412816144
:10191000C161016241628162FFF750FE08B1FEF7CA
:10192000EDFC00210C48FFF73DFD08B1FEF7E6FC99
:1019300000210948FFF710FD08B1FEF7DFFC06485B
:10194000FFF7EAFC002803D0BDE81040FEF7D6BC44
:1019500010BD00000038014060000020FEE7FEE7F7
:1019600070477047FEF7F2BD30B5A5B03821684624
:10197000FEF786FC14211FA8FEF782FC44210EA866
:10198000FEF77EFC4FF40070FEF772FE012528047E
:10199000CDE9005002200324CDE907041421CDE94C
:1019A0000A100C900D9009946846FFF755F908B19C
:1019B00072B6FEE70F20CDE91F0400242194229483
:1019C00002211FA82394FEF7FDFF08B172B6FEE7BF
:1019D000CDE90E540EA8FEF7B1FE002801D072B674
:1019E000FEE725B030BD00000548016841F47001F4
:1019F000016003494FF000608039086070470000C3
:101A000088ED00E02DE9F0430268234B234D244E7E
:101A1000244C4FF08049984207D0484505D0A84251
:101A200003D0B04201D0A04203D122F070074A682F
:101A30003A431D4FDFF874C0DFF8748098420DD030
:101A400048450BD0A84209D0B04207D0A04205D0EB
:101A5000B84203D0604501D0404503D122F440751F
:101A6000CA682A434D6922F080022A4302608A68CC
:101A7000C2620A688262984207D0A04205D0B8428A
:101A800003D0604501D0404501D1096901630121BE
:101A90004161BDE8F0830000002C014000040040DB
:101AA0000008004000340140004001400044014073
:101AB0000048014010B5846842EA032224F47F44C0
:101AC0000A432243826010BD8268034B1A400A43D6
:101AD00042F00701816070478FFFCFFF10B5036AA6
:101AE000046A24F001040462846924F0F00444EAE6
:101AF000021423F00A020A438461026210BD10B589
:101B0000036A23F0100303628369046A23F47043B9
:101B100043EA023224F0A00343EA01118261016228
:101B200010BD00003FB514A1D1E90021CDE900218D
:101B300013A2D2E90012CDE90212416EB9B10268D6
:101B400091689268C1F34261520F1DF80240E500AE
:101B500002ACA25CB5FBF2F2A0F86A201DF80120ED
:101B6000615CD200B2FBF1F1A0F868103FBD012129
:101B7000A0F86A10F8E70000010101030701000066
:101B8000080402040801010190F82810C90706D0D2
:101B900001684A68C36A22F400321A434A6090F826
:101BA0002810890706D501684A68036B22F4803241
:101BB0001A434A6090F82810490706D501684A6818
:101BC000436B22F480221A434A6090F828100907D8
:101BD00006D501684A68836B22F400421A434A60C2
:101BE00090F82810C90606D501688A68C36B22F4EC
:101BF00080521A438A6090F82810890606D5016839
:101C00008A68036C22F400521A438A6090F8281004
:101C1000490611D501684A68436C22F480121A43C0
:101C20004A60416CB1F5801F06D101684A68836C37
:101C300022F4C0021A434A6090F82810090606D51B
:101C400001684A68C06C22F4002202434A6070476F
:101C5000F8B500260446C0F88860FEF771FC05461A
:101C6000206800686FF07E47000708D52B460022E9
:101C70004FF400112046009700F072FA60B9206816
:101C8000006840070AD52B4600224FF48001204609
:101C9000009700F065FA08B10320F8BD2020C4F8D1
:101CA0008000C4F8840084F87C600020F8BD10B582
:101CB000806A0021A0F85E10A0F85610FFF79AFB8A
:101CC00010BD000001680A6822F490720A60016881
:101CD0008A68044B1A408A602021C0F884100021D1
:101CE000C1667047FEFFFFEF10B5B0F86020D0F876
:101CF00084300168222B04D0886940F00800886194
:101D000010BD496A836D11401980816D891C816500
:101D1000B0F85E10491EA0F85E10B0F85E10002901
:101D2000EED101680A6822F490720A6001688A683C
:101D300022F001028A602021C0F884100021C166CF
:101D4000FFF72AFD10BD000070B50446B0F86060D2
:101D5000D0F88400222805D02068816941F008016C
:101D6000816170BDB4F8685023E02068406AA16DBD
:101D700030400880A06D801CA065B4F85E00401E55
:101D8000A4F85E00B4F85E0088B92068016821F408
:101D90008071016020688168114A114081602020B3
:101DA000C4F884000020E0662046FFF7F5FC6D1EB5
:101DB000ADB2002DD9D1B4F85E000028D1D0B4F86E
:101DC00068108142CDD92068816821F080518160FE
:101DD0000448E0662068016841F02001016070BDA0
:101DE000FEFFFFEFE91C000810B5B0F86020D0F846
:101DF00084300168222B04D0886940F00800886193
:101E000010BD496A1140826D1170816D491C816558
:101E1000B0F85E10491EA0F85E10B0F85E10002900
:101E2000EED101680A6822F490720A6001688A683B
:101E300022F001028A602021C0F884100021C166CE
:101E4000FFF7AAFC10BD000070B50446B0F8606052
:101E5000D0F88400222805D02068816941F008016B
:101E6000816170BDB4F8685023E02068406AA16DBC
:101E700030400870A06D401CA065B4F85E00401EA4
:101E8000A4F85E00B4F85E0088B92068016821F407
:101E90008071016020688168114A114081602020B2
:101EA000C4F884000020E0662046FFF775FC6D1E34
:101EB000ADB2002DD9D1B4F85E000028D1D0B4F86D
:101EC00068108142CDD92068816821F080518160FD
:101ED0000448E0662068016841F02001016070BD9F
:101EE000FEFFFFEFE91D00082DE9F04104460268FE
:101EF00080682169E3690843616900251943084343
:101F0000616EDFF830C2014310688B4B1840084304
:101F1000106020684168E26821F44051114341603B
:101F20002168A069614501D0226A10438A68834B09
:101F30001A4002438A602068C16A626A21F00F0178
:101F40001143C1627E4923687E488B420DD1D0F88F
:101F5000880010F0030006D0012855D0022842D096
:101F600003283FD152E001203DE077498B420BD15D
:101F7000D0F8880010F00C0035D0042833D00828A1
:101F800040D00C282ED141E070498B420BD1D0F8C3
:101F9000880010F0300026D0102835D0202831D00D
:101FA00030281FD132E06A498B420BD1D0F888002B
:101FB00010F0C00017D0402826D0802822D0C0289A
:101FC00010D123E063450DD1D0F8880010F44060B3
:101FD00009D0B0F5806F17D0B0F5006F12D0B0F512
:101FE000406F13D010205B495B4F00264FF4004236
:101FF000634539D160B1022813D004280BD00828DA
:1020000031D10DE00220EEE70420ECE70820EAE7FA
:10201000FEF7C6FD01E0FEF7E7FD010001D17EE01D
:102020001146606A37F810206768B1FBF2F007EBE1
:10203000470383426FD8B0EB073F6CD800230846B4
:102040001946FEF7E5F8090241EA10610202780834
:10205000101871413A460023FEF7DAF83F4AA0F51E
:102060004071914259D956E0E3694FF6EF789342B7
:102070002DD109284FD2DFE800F00508114E0D4E92
:102080004E4E1000FEF78CFD01E0FEF79BFD0100B7
:1020900004D144E0FEF7A8FDF9E71146606A37F87D
:1020A0001000B1FBF0F04100606801EB5001B1FBA2
:1020B000F0F080B2A0F1100141452CD84FF6F0713C
:1020C0000140C0F3420001432068C16027E00928B5
:1020D00021D2DFE800F0050811200D20202010009B
:1020E000FEF75EFD01E0FEF76DFD010004D116E094
:1020F000FEF77AFDF9E71146606A37F81000B1FB88
:10210000F0F1606801EB5001B1FBF0F080B2A0F19A
:102110001001414501D9012501E02168C860012075
:10212000A4F86A0024F8680F28466660A660BDE837
:10213000F081000000800040F369FFCFFFF4FF1141
:1021400000380140001002400044004000480040B8
:10215000004C00400024F4007C230008FFFC0F002A
:102160002DE9F0479A4617460E4604464FF00009FF
:102170004FF02008089D39E0681C37D0FEF7E0F9E1
:10218000A0EB0A00A84222D80DB3206801684907D5
:102190002CD5C069C043000528D421684FF40060E5
:1021A00008622068016821F4D071016020688168AC
:1021B00021F001018160C4F88080C4F88480C4F8F3
:1021C000888000BF84F87C900320BDE8F0872068F9
:1021D000016821F4D07101602068816821F001015B
:1021E0008160C4F88080C4F88480EBE72068C0690F
:1021F00036EA000004D00020B842BDD00020E4E759
:102200000120F9E70148FFF7F7B80000600000205F
:10221000FEE700000FB4084610B5064A02A900F018
:102220002AF8044602A9002000F036F8204610BC27
:102230005DF814FB992200080907090E002804DB49
:1022400000F1E02080F80014704700F00F0000F16A
:10225000E02080F8141D704702E008C8121F08C172
:10226000002AFAD170477047002001E001C1121F17
:10227000002AFBD170472DE9F04116460F4604466F
:10228000002503E03946B047641C6D1C2078002807
:10229000F8D12846BDE8F0810A68531C0B60107025
:1022A00070470000FEF75AF9FFF75EFBFFF7D6FA1A
:1022B000FFF720FBFFF7E8FA012205490548FFF781
:1022C000EDF90548FEF776FF00F008F8FCE700009E
:1022D00010000020600000201400002070B51E4D8A
:1022E000A878002837D01D4800680F2833D91C4C27
:1022F00020462278417880786C2A04D0712A08D050
:10230000622A0ED011E061290FD16E280DD115A1DE
:102310000CE0692909D1612807D1E0786F28F6D04F
:1023200003E0652901D16928F1D010A10C481430CF
:10233000FFF770FF0A493223142214310E48FFF7C9
:102340002CFA0021A97008466A7801E02154401C4B
:102350009042FBDB697070BD100000202408004033
:10236000EC0000206C616E0D0A0000006572726F57
:1023700072210D0A00000000600000200100020030
:102380000400060008000A000C00100020004000B5
:1023900080000001000000000000000001020304B2
:1023A000060708090000000001020304CC2300080E
:1023B000000000201400000058220008E02300085C
:1023C000140000200405000068220008100000002E
:1023D00001000000000000000024F40000000000E4
:04000005080001D915
:00000001FF
