:020000040800F2
:10000000C0040020ED010008471700084B1200084B
:100010004517000859020008131C000800000000E2
:100020000000000000000000000000005F1A00084F
:100030005B0200080000000049170008611A000870
:10004000070200080702000807020008070200086C
:10005000070200080702000807020008070200085C
:10006000070200080702000807020008070200084C
:10007000070200080702000807020008070200083C
:10008000070200080000000007020008070200083D
:10009000070200080702000807020008070200081C
:1000A000070200080702000807020008070200080C
:1000B000E91A000807020008070200080702000802
:1000C00007020008070200080702000807020008EC
:1000D00007020008070200080702000807020008DC
:1000E00007020008070200080702000807020008CC
:1000F00007020008070200080702000800000000CD
:1001000000000000070200080000000007020008CD
:1001100007020008000000000702000807020008AC
:10012000070200080702000807020008070200088B
:10013000070200080000000000000000070200089D
:10014000070200080702000800000000000000008D
:10015000000000000000000000000000000000009F
:10016000000000000000000000000000070200087E
:10017000070200080000000000000000000000006E
:10018000000000000702000800000000000000005E
:10019000000000000000000000000000000000005F
:1001A000000000000000000007020008070200082D
:1001B000070200080702000807020008000000000C
:1001C000000000000702000800000000000000001E
:1001D0000702000807020008DFF80CD000F02AF838
:1001E00000480047991C0008C004002006488047CA
:1001F00006480047FEE7FEE7FEE7FEE7FEE7FEE70C
:10020000FEE7FEE7FEE7FEE7CD1A0008D901000889
:10021000D2B201E000F8012B491EFBD27047002248
:10022000F6E710B513460A4604461946FFF7F0FFF5
:10023000204610BD064C074D06E0E06840F0010383
:1002400094E8070098471034AC42F6D3FFF7C8FF94
:10025000101D0008301D0008FEE77047002240F620
:10026000B83306E00021491C89B29942FBD3521CE5
:1002700092B28242F6D3704772B6FEE770B504467A
:1002800000F0F8F80546601C02D0044840680444B9
:1002900000F0F0F8401BA042FAD370BD000000202F
:1002A0002DE9FC4FDFF8A0A1002301250AF1040B82
:1002B00003244FF00F0C0BF1040EBDE005FA03F61A
:1002C00032406FD04F68012F05D0022F03D0112F7D
:1002D00001D0122F17D1D0F808905F0004FA07F868
:1002E00029EA08090097D1F80C8008FA07F848EACB
:1002F0000908C0F808804768B7430E79C6F30016AE
:100300009E403E434660C6684FEA430804FA08F739
:10031000BE4301978F6807FA08F73743C7604E68F6
:10032000022E01D0122E13D1DE0800EB86060096B5
:10033000366A5F07FF0E0CFA07F926EA0906D1F8BC
:10034000109009FA07F949EA0609009EC6F82090BC
:100350000668019FBE430F7907F0030707FA08F705
:10036000374307604E68F60065D5384E376E47F064
:1003700001073766366E23F0030706F00106009684
:10038000334E3E44B146B6689F074FEA17780CFAE1
:1003900008F7BE43B0F1904F05D02E4FB84204D1BC
:1003A000012717E047E0002714E02B4FB84201D1A6
:1003B00002270FE0294FB84201D103270AE0284F56
:1003C000B84201D1042705E0264FB84201D10527E4
:1003D00000E0062707FA08F73743C9F80870DAF88B
:1003E00000605746D1F8048096435FEAC83800D5CC
:1003F00016433E60DBF800605F46D1F80480964308
:100400005FEA883800D516433E60DEF80060774624
:10041000D1F8048096435FEAC82800D516433E60B1
:10042000094F0C373E68D1F8048096435FEA88286C
:1004300000D516433E605B1C0A6832FA03F67FF46F
:100440003DAFBDE8FC8F00000004014000100240F9
:10045000000001400004004800080048000C00486B
:1004600000100048001400480AB1816170478162A1
:1004700070470000014880687047000000000020BD
:100480000248816842681144816070470000002082
:1004900010B50024032000F073F8002000F008F8E5
:1004A00008B1012401E000F025F8204610BD00004D
:1004B00070B50E4E05460024706898B14FF47A71FD
:1004C000B1FBF0F00A490968B1FBF0F000F0FCFB69
:1004D00040B9102D06D200222946501E00F030F8F7
:1004E000356000E00124204670BD000000000020BF
:1004F0000C0000200A4882B0016E41F00101016643
:10050000016E01F001010091816D41F08051816522
:10051000806D00F08050009002B000F0A1B80000A3
:1005200000100240002809DB00F01F020121914069
:100530004009800000F1E020C0F800117047000081
:10054000F0B40E4B1B680C46C3F30223C3F107053E
:10055000042D00D90425191D072901D2002300E02C
:10056000DB1E012606FA05F1491E214099409E40F6
:10057000761E16403143F0BC01F04CBB0CED00E0A0
:10058000064900F0070208684FF6FF03184040EAEA
:100590000220034A10430860704700000CED00E0A1
:1005A0000000FA052B492C4B0A6832214A432B499B
:1005B00040B1B0F5007F086829D020F4C06040F455
:1005C00080602CE00868C0F34120022804D051F874
:1005D000800F20F4807022E0D1F8800020F4807039
:1005E000C1F88000086820F4C06040F40070086022
:1005F000B2FBF3F0401C00E0401E4A69520501D5F1
:100600000028F9D1486940050AD503207047C0F396
:100610004120022806D051F8800F40F48070086015
:1006200000207047D1F8800040F48070C1F880004D
:10063000086820F4C06040F400700860B2FBF3F07A
:10064000401C00E0401E4A695205DBD50028F9D164
:10065000D8E700000C00002040420F00007000406E
:100660000248816841F48041816070470070004019
:100670002DE9F0470E4605004FF0000725D0DFF8C2
:10068000AC81D8F8000000F00F00B0420CD2D8F8CE
:10069000001021F00F013143C8F80010D8F8000015
:1006A00000F00F00B04210D12968614CC80741F238
:1006B000883A5AD06868DFF87C91032808D002286D
:1006C00020682DD0400500282CDB0120BDE8F087F4
:1006D00020688001F9D5E06800F00302E068C0F30B
:1006E0000310401C032A19D0534A00BFB2FBF0F09C
:1006F000E268C2F306225043E268C2F34162521C30
:100700005200B0FBF2F0484517D9A06810F0F00F86
:100710000CD0880711D5A86840B10EE0474AE5E73C
:100720008003D0E700F092F8484506D9A06820F091
:10073000F00040F08000A0608027A068696820F089
:1007400003000843A060FFF795FE814606E000BF66
:10075000FFF790FEA0EB090151453AD8A0686968FF
:1007600000F00C00B0EB810FF2D12868810714D59E
:10077000400703D5A06840F4E060A0602878000737
:1007800005D5A06820F4605040F4E060A060A06847
:10079000A96820F0F000084304E0802F03D1A0688E
:1007A00020F0F000A060D8F80010404601F00F01E2
:1007B000B14216D9016821F00F0131430160FFF702
:1007C00059FE074607E000BFFFF754FEC11B514525
:1007D00001D903207AE7D8F8000000F00F00B042FA
:1007E000F2D12878400705D5A068E96820F4E060D8
:1007F0000843A0602878000706D5A068296920F47E
:10080000605040EAC100A06000F020F8A1680C4AE6
:10081000C1F30311515C01F01F01C8400949086090
:1008200009480068BDE8F047FFF742BE00200240DB
:100830000010024000B4C4040024F40000366E012D
:10084000001D00080C00002000000020184910B511
:100850008868C0F381021748012A0BD08A68164BBA
:10086000C2F38102022A06D08A68C2F38102032AF7
:1008700003D0002010BD184610BDCA6802F0030462
:10088000CA68C2F30312521C032C02D0B0FBF2F070
:1008900001E0B3FBF2F0CA68C968C2F30622504314
:1008A000C1F34161491C4900B0FBF1F010BD0000EB
:1008B000001002400024F40000366E012DE9F843D8
:1008C00004007AD02078FA4DC00747D0A868E968BC
:1008D00000F00C0001F003010C2802D0082817D00A
:1008E00001E0032914D06068B0F5803F17D0B0F55F
:1008F000A02F286817D020F480302860286820F4C2
:10090000802028606068E0B1FFF7B4FD064614E07F
:100910002868800322D560680028D2D01EE02868AD
:1009200040F48030EDE740F480202860F7E700BF16
:10093000FFF7A0FD801B642870D828688003F7D5D6
:100940000CE0FFF797FD064605E000BFFFF792FDBC
:10095000801B6428F0D828688003F7D420788007AB
:100960004CD5A868E96800F00C0001F003010C28E0
:1009700002D004280DD001E002290AD0E068002846
:1009800028682BD040F480702860FFF773FD06467E
:1009900019E02868400502D5E068002891D0686811
:1009A000217C20F0FE4040EA01606860C148006898
:1009B000FFF77EFD002800D120E076E1FFF75AFD29
:1009C000801B0228B8D828684005F7D56868217CC4
:1009D00020F0FE4040EA016068600FE020F4807083
:1009E0002860FFF747FD064605E000BFFFF742FD20
:1009F000801B0228A0D828684005F7D4207800077B
:100A000029D560690028D5F8940013D040F0010082
:100A1000C5F89400FFF72EFD064606E090E000BF03
:100A2000FFF728FD801B022886D8D5F894008007A0
:100A3000F6D510E020F00100C5F89400FFF71AFD8C
:100A4000064604E0FFF716FD801B022878D8D5F88B
:100A500094008007F6D42078400761D5A86D002661
:100A6000C00008D4A86D40F08050A865A86D01268C
:100A700000F08050009090480168C90511D40168C9
:100A8000804641F480710160FFF7F4FC074604E002
:100A9000FFF7F0FCC01B022852D8D8F80000C005B0
:100AA000F6D5A068012815D00528D5F8900016D0F5
:100AB00020F00100C5F89000D5F8900020F0040067
:100AC000C5F89000A06841F28838B8B1FFF7D2FCB1
:100AD00007460EE0D5F8900040F00100F0E740F046
:100AE0000400C5F89000F5E7FFF7C4FCC11B4145C1
:100AF00026D8D5F890008007F6D50CE0FFF7BAFCB1
:100B0000074604E0FFF7B6FCC11B414518D8D5F8ED
:100B100090008007F6D41EB1A86D20F08050A86523
:100B20002078800629D5A0690028D5F8980013D030
:100B300040F00100C5F89800FFF79CFC064606E06F
:100B400077E000BFFFF796FC801B022877D8D5F826
:100B500098008007F6D510E020F00100C5F8980055
:100B6000FFF788FC064604E0FFF784FC801B0228A0
:100B700065D8D5F898008007F6D4E069F0B3A96885
:100B8000C1F38101032961D00228286820F0807018
:100B900028600BD0E86820F00300E860E868474967
:100BA0000840E860FFF766FC04464BE0FFF762FC94
:100BB000064604E0FFF75EFC801B02283FD8286849
:100BC0008001F7D4F4E908016FF00F0202EB011184
:100BD0000843218A5204490802EB4151A26841EAC4
:100BE00002210843217D4FF07E42490802EB41611A
:100BF0000843217B40EAC160E96800E062E0304AD6
:100C000011400843E860286840F080702860E86878
:100C100040F08070E860FFF72DFC044605E000BF5F
:100C2000FFF728FC001B022809D828688001F7D5A7
:100C300048E004E0FFF71EFC001B022802D9032055
:100C4000BDE8F88328688001F4D43BE00128F7D0A0
:100C5000E868226A00F00301914226D1616A00F03F
:100C6000F0020901103991421FD1A26A00F4FE413D
:100C7000B1EB022F19D194F82C2000F07841B1EBA0
:100C8000C26F12D1218E00F4C00249084905A1F5B6
:100C90000011914209D194F8341000F0C060490865
:100CA0004906A1F1007181420CD00120C8E7000083
:100CB000001002400000002000700040FFFFEEFE28
:100CC0000C809F010020BBE710B5401EB0F1807F73
:100CD00001D3012010BD4FF0E02460610F216017A7
:100CE00000F098FF0020A06107202061002010BDC7
:100CF000704770477047704770477047F0B590F87D
:100D00003C20012A3AD0012580F83C50022280F88C
:100D10003D2003685A689C68194E1A4FB34201D0AF
:100D2000BB4204D122F4700C4A6842EA0C02DFF89C
:100D300058C002EA0C02D1F800C04CEA020CC3F819
:100D400004C00268B2420DD0B2F1804F0AD00F4BFE
:100D50009A4207D00E4B9A4204D0BA4202D00D4BB1
:100D60009A4204D1896824F080031943916080F885
:100D70003D50002180F83C100846F0BD0220F0BD37
:100D8000002C0140003401408FFFFFFD00040040B3
:100D90000008004000400140704710B5040003D037
:100DA00094F83D0010B107E0012010BD002084F848
:100DB0003C00204600F022F8022084F83D00211D6E
:100DC000206800F097FE012084F8480084F83E0077
:100DD00084F83F0084F8400084F8410084F8420021
:100DE00084F8430084F8440084F8450084F8460001
:100DF00084F8470084F83D00002010BD08B5016864
:100E00001048B1F1804F0BD00F4A914207D1816D4C
:100E100041F002018165806D00F00200009008BD84
:100E2000816D41F001018165806D002200F00100BB
:100E3000009011461C20FFF783FBBDE808401C20F2
:100E4000FFF770BB001002400004004090F83D1016
:100E5000012901D001207047022180F83D1000686F
:100E60000F4988420ED0B0F1804F0BD00D49884217
:100E700008D00D49884205D00C49884202D00C495F
:100E8000884207D181680B4A1140062906D0B1F586
:100E9000803F03D0016841F00101016000207047EC
:100EA000002C0140000400400008004000340140D4
:100EB000004001400700010090F83D10012901D0D9
:100EC00001207047022180F83D100168CA6842F095
:100ED0000102CA600068104988420ED0B0F1804F0C
:100EE0000BD00E49884208D00D49884205D00D49E3
:100EF000884202D00C49884207D181680B4A1140D0
:100F0000062906D0B1F5803F03D0016841F0010108
:100F10000160002070470000002C014000040040E8
:100F2000000800400034014000400140070001007B
:100F300070B5044690F83C00012814D0012584F8CF
:100F40003C50022084F83D0022689068344B1840E1
:100F500020F47F4090600868702827D010DC10F0E3
:100F60000F0F03D04AE04FF0020070BD4FEA20128D
:100F7000072A43D2DFE802F0505050504831390080
:100F8000284BC21A984247D009DCB0F5805F35D0B3
:100F9000B0F5005F15D0B0F1101F2FD13CE0102A42
:100FA0003AD0202A38D0502A28D135E0CB68D1E970
:100FB0000121206800F0F6FD2068816841F077018A
:100FC00009E0CB68D1E90121206800F0EBFD206841
:100FD000816841F48041816010E0CA6849682068F6
:100FE00000F0F4FD5021206806E0CA6849682068D6
:100FF00000F0FDFD6021206800F0DEFD84F83D502A
:10100000002084F83C0070BDCA684968206800F080
:10101000DDFD40212068EFE7226801461046EBE73E
:1010200088FFCEFF20001000704770B504460068AE
:1010300001694FF00005C943890715D4C168C94348
:10104000890711D4E91E0161012020772068806999
:101050008007204602D0FFF7E7FF04E000F0E3F846
:10106000204600F0E1F8257720680169C943490767
:1010700017D4C168C943490713D46FF00401016153
:10108000022020772068806910F4407F204602D03B
:10109000FFF7CAFF04E000F0C6F8204600F0C4F8ED
:1010A000257720680169C943090716D4C168C94377
:1010B000090712D46FF0080101610420207720682D
:1010C000C0698007204602D0FFF7AEFF04E000F0C1
:1010D000AAF8204600F0A8F8257720680169C943DE
:1010E000C90617D4C168C943C90613D46FF01001EB
:1010F0000161082020772068C06910F4407F2046F5
:1011000002D0FFF791FF04E000F08DF8204600F0D8
:101110008BF8257720680169C943C90708D1C168E0
:10112000C943C90704D1891E0161204600F07EF839
:1011300020680169C943090609D4C168C943090681
:1011400005D46FF0800101612046FFF7D2FD2068D1
:101150000169C943C90509D4C168C943090605D451
:101160006FF4807101612046FFF7C2FD20680169BC
:10117000C943490609D4C168C943490605D46FF07B
:1011800040010161204600F05FF820680169C94311
:10119000890609D4C168C943890605D46FF02001C6
:1011A00001612046FFF7A6FD20680169C943C90215
:1011B00009D4C168C943C90205D46FF48011016123
:1011C0002046FFF799FD20680169C943890209D4C7
:1011D000C168C943890205D46FF40011016120463A
:1011E000FFF789FD20680169C943490209D4C16834
:1011F000C943490205D46FF4800101612046FFF71D
:101200007CFD20680169C94309020BD4C168C94348
:10121000090207D46FF4000101612046BDE8704067
:10122000FFF7BABD70BD7047704700000068B0F1AD
:10123000804F05D103490878401C00F00100087078
:1012400070470000100000207047FEE700B585B031
:1012500014216846FEF7E3FF4FF6FF700090002070
:101260000321CDE90201019069460248FFF718F811
:1012700005B000BD0008004800B585B014216846DF
:10128000FEF7CDFF4FF6FF70009001200190032084
:1012900003900020029069460248FFF701F805B06C
:1012A00000BD0000000800482DE9F0410A4E8046CC
:1012B0003068002485B22146204600F0C5F800F0D1
:1012C00009F94FF49637404600F0D8F8641CBC4248
:1012D000F9D33560BDE8F0811408004830B587B017
:1012E00014216846FEF79BFF1E48C16C41F00401C3
:1012F000C164C16C01F004010591C16C41F00101B0
:10130000C164C16C01F001010591C16C41F00201A1
:10131000C164C06C012500F0020005904FF44870D4
:10132000CDE9000500240394694602940E48FEF7B7
:10133000B7FF280203940090CDE901544FF0904488
:1013400069462046FEF7ACFFFFF796FFA06940F420
:101350008070A06104481830016841F40871016090
:1013600007B030BD001002400004004870B50D4EBB
:10137000306885B2FFF7B2FF002000F017F80A4C82
:10138000A080A088A0F50241303907D000F066FAAD
:10139000002000F00BF8A080356070BD00F0D5F99A
:1013A000F6E70000140800482000002070B51D4931
:1013B0000A6842F400720A600A6842F480720A60A5
:1013C000184C103C226842F020022260164A10603D
:1013D000086840F02000086000BF00BF00BF206820
:1013E00040F020002060206840F480702060FFF70B
:1013F0002DFF4FF09041886A40F48070886200BFF2
:1014000000BF00BF0848001F006885B2886940F42B
:1014100080708861FFF730FF206840F40070206022
:10142000284670BD280400481408004801B5044847
:101430000168BDF8002089B2024B5A80016008BDE6
:10144000140800482000002010B50C46014620205A
:1014500000F06EF82146BDE81040212000F068B889
:1014600001B504480168BDF8002089B2024B1A801A
:10147000016008BD1408004820000020134A1168CC
:1014800041F400711160114910390B6843F4807305
:101490000B600B6843F020030B600D4B1860106865
:1014A00040F02000106000BF00BF00BF086840F09F
:1014B00020000860086840F48070086000BF00BF2A
:1014C00000BF086840F400700860704728040048B6
:1014D000140800481449086840F40070086008685F
:1014E00040F48070086010481038026842F0200212
:1014F00002600E4B22221A600A6842F020020A6043
:1015000000BF00BF00BF016841F020010160016819
:1015100041F48071016000BF00BF00BF016841F469
:10152000007101607047000028040048140800485A
:10153000184B10B51A6842F400721A601A6842F427
:1015400080721A60134A103A146844F02004146040
:10155000114C2060186840F02000186000BF00BFE8
:1015600000BF106840F020001060106840F48070E8
:1015700010602160186840F02000186000BF00BFB4
:1015800000BF106840F020001060106840F48070C8
:10159000106010BD2804004814080048F0B587B05A
:1015A00014216846FEF73BFE2D48C16C41F0040152
:1015B000C164C16C01F004010591C16C41F02001CE
:1015C000C164C16C01F020010591C16C41F00101C1
:1015D000C164C16C01F001010591C16C41F00201CF
:1015E000C164C16C01F002010591C16C41F00801B8
:1015F000C164C06C1B4E00F008004FF47F4405909E
:10160000012221463046FEF72FFF174F0122042109
:101610003846FEF729FF0125CDE900450024029454
:10162000694630460394FEF73BFECDE90054694617
:101630004FF090400295FEF733FE07208DE8310011
:1016400069460A48FEF72CFE04200090CDE90154BB
:10165000694638460394FEF723FE07B0F0BD00004C
:101660000010024000080048000C00480004004838
:1016700010B588B000241748009401940294039494
:10168000049405944FF080410694016041F63F7147
:10169000C0E9011442F20F71C0E903148461FFF73D
:1016A0007CFB08B1FEF7E8FD4FF4805000906946DE
:1016B0000848FFF73DFC08B1FEF7DEFD049404A9DD
:1016C00004480694FFF71AFB002801D0FEF7D4FD6A
:1016D00008B010BD2800002010B588B000241848BC
:1016E000009401940294039404940594134906947D
:1016F000016041F63F71C0E901144FF6FF71C0E986
:1017000003148461FFF749FB08B1FEF7B5FD4FF400
:101710008050009069460A48FFF70AFC08B1FEF7BE
:10172000ABFD049404A906480694FFF7E7FA0028E5
:1017300001D0FEF7A1FD08B010BD0000000400407C
:1017400074000020FEE7FEE7704730B5012100205D
:10175000FFF7EEFE4FF47A70FEF780FD00210120C6
:10176000FFF7E6FE41F290711020FFF7E1FE4FF423
:101770001C516020FFF7DCFE01216120FFF7D8FE3D
:1017800002214620FFF7D4FE48F210011320FFF794
:10179000CFFE48F2FE011220FFF7CAFE4FF4A0610F
:1017A0000220FFF7C5FE41F230010320FFF7C0FE23
:1017B00040F2033421463020FFF7BAFE21463120A3
:1017C000FFF7B6FE21463220FFF7B2FEE51E29469E
:1017D0003320FFF7ADFE03213420FFF7A9FE214699
:1017E0003520FFF7A5FE14213620FFF7A1FE214684
:1017F0003720FFF79DFE21463820FFF799FE21464E
:101800003920FFF795FE29463A20FFF791FE032184
:101810003B20FFF78DFE21463C20FFF789FE4FF469
:10182000A0513D20FFF784FE4FF400719220FFF796
:101830007FFE21469320FFF77BFE40F60D019020AE
:10184000FFF776FE41F218010320FFF771FEBDE8B5
:10185000304040F273110720FFF76ABE10B543F223
:101860000801E320FFF764FE1221E720FFF760FE86
:1018700041F23121EF20FFF75BFE00210120FFF74D
:1018800057FE4FF4E0610220FFF752FE41F23001B3
:101890000320FFF74DFE00210420FFF749FE40F230
:1018A00007210820FFF744FE00210920FFF740FE32
:1018B00000210A20FFF73CFE00210C20FFF738FE34
:1018C00000210D20FFF734FE00210F20FFF730FE2E
:1018D00000211020FFF72CFE07211120FFF728FE22
:1018E00000211220FFF724FE00211320FFF720FE25
:1018F000C820FEF7C3FC41F290611020FFF718FEEC
:1019000040F227211120FFF713FE3220FEF7B6FC2C
:101910001D211220FFF70CFE3220FEF7AFFC4FF422
:1019200000611320FFF704FE14212920FFF700FEB9
:101930000B212B20FFF7FCFD3220FEF79FFC00213E
:101940002020FFF7F5FD00212120FFF7F1FD072101
:101950003020FFF7EDFD40F207713120FFF7E8FD81
:1019600006213220FFF7E4FD40F204713520FFF735
:10197000DFFD41F604713620FFF7DAFD0421372040
:10198000FFF7D6FD00213820FFF7D2FD40F20671A7
:101990003920FFF7CDFD40F201713C20FFF7C8FD73
:1019A0000F213D20FFF7C4FD00215020FFF7C0FDAF
:1019B000EF215120FFF7BCFD00215220FFF7B8FDB9
:1019C00040F23F115320FFF7B3FD4FF41C5160204C
:1019D000FFF7AEFD01216120FFF7AAFD00216A207B
:1019E000FFF7A6FD00218020FFF7A2FD0021812046
:1019F000FFF79EFD00218220FFF79AFD0021832042
:101A0000FFF796FD00218420FFF792FD002185203D
:101A1000FFF78EFD10219020FFF78AFD0021922014
:101A2000FFF786FD03219320FFF782FD4FF48871B5
:101A30009520FFF77DFD00219720FFF779FD00211C
:101A40009820FFF775FD41F218010320FFF770FDA4
:101A5000BDE8104040F273110720FFF769BD7047E1
:101A6000FEF70EBD10B594B038216846FEF7D7FBDF
:101A700014210EA8FEF7D3FB4FF40070FEF792FD81
:101A8000012000900004019002200324CDE9070406
:101A90001421CDE90A100C900D9009946846FEF7C8
:101AA0000DFF08B172B6FEE70F20CDE90E0400204D
:101AB00010901190129002210EA8FEF7D9FD002877
:101AC00001D072B6FEE714B010BD000005480168F1
:101AD00041F47001016003494FF0006080390860F3
:101AE0007047000088ED00E00148FFF79EBA000053
:101AF000280000202DE9F0430268234B234D244E9B
:101B0000244C4FF08049984207D0484505D0A84260
:101B100003D0B04201D0A04203D122F070074A683E
:101B20003A431D4FDFF874C0DFF8748098420DD03F
:101B300048450BD0A84209D0B04207D0A04205D0FA
:101B4000B84203D0604501D0404503D122F440752E
:101B5000CA682A434D6922F080022A4302608A68DB
:101B6000C2620A688262984207D0A04205D0B84299
:101B700003D0604501D0404501D1096901630121CD
:101B80004161BDE8F0830000002C014000040040EA
:101B90000008004000340140004001400044014082
:101BA0000048014010B5846842EA032224F47F44CF
:101BB0000A432243826010BD8268034B1A400A43E5
:101BC00042F00701816070478FFFCFFF10B5036AB5
:101BD000046A24F001040462846924F0F00444EAF5
:101BE000021423F00A020A438461026210BD10B598
:101BF000036A23F0100303628369046A23F47043C9
:101C000043EA023224F0A00343EA01118261016237
:101C100010BDFEE70907090E002804DB00F1E020F3
:101C200080F80014704700F00F0000F1E02080F809
:101C3000141D704702E008C8121F08C1002AFAD11B
:101C400070477047002001E001C1121F002AFBD13C
:101C50007047000070B50E4E0D4604460122042167
:101C60003046FEF701FC4FF48070641EA040094B23
:101C700081B20DB1002200E001221846FEF7F4FB0C
:101C80003046BDE8704000220421FEF7EDBB0000A5
:101C9000000C004800080048FEF7FAFBFFF7E2FEE0
:101CA000FFF77CFCFFF7E4FCFFF716FD00220421A0
:101CB0001048FEF7D9FBFFF759FB0020FFF7F4FAB5
:101CC0000020FFF7B3FB4FF6FF70FFF7C9FB0A4890
:101CD000FFF7F2F80948FFF7B9F801210846FFF7C6
:101CE000B9FF01210420FFF7B5FF01210820FFF70C
:101CF000B1FFF2E7000C004828000020740000202B
:101D000000000000000000000102030406070809AB
:101D1000301D00080000002028000000341C0008CE
:101D2000581D00082800002098040000441C0008EA
:101D30001000000001000000000000000024F4007A
:101D4000000101010100000000000000000000008F
:081D50000000FFFF000000008D
:04000005080001D915
:00000001FF
