:020000040800F2
:1000000010040020ED010008370D0008910C0008D5
:10001000350D000859020008C50D00080000000059
:100020000000000000000000000000003B0D000880
:100030005B02000800000000390D00083D0D0008BB
:10004000070200080702000807020008070200086C
:10005000070200080702000807020008070200085C
:10006000070200080702000807020008070200084C
:10007000070200080702000807020008070200083C
:10008000070200080000000007020008070200083D
:10009000070200080702000807020008070200081C
:1000A000070200080702000807020008070200080C
:1000B00007020008070200080702000807020008FC
:1000C00007020008070200080702000807020008EC
:1000D00007020008070200080702000807020008DC
:1000E00007020008070200080702000807020008CC
:1000F00007020008070200080702000800000000CD
:1001000000000000070200080000000007020008CD
:1001100007020008000000000702000807020008AC
:10012000070200080702000807020008070200088B
:10013000070200080000000000000000070200089D
:10014000070200080702000800000000000000008D
:10015000000000000000000000000000000000009F
:10016000000000000000000000000000070200087E
:10017000070200080000000000000000000000006E
:10018000000000000702000800000000000000005E
:10019000000000000000000000000000000000005F
:1001A000000000000000000007020008070200082D
:1001B000070200080702000807020008000000000C
:1001C000000000000702000800000000000000001E
:1001D0000702000807020008DFF80CD000F02AF838
:1001E00000480047490E00081004002006488047D8
:1001F00006480047FEE7FEE7FEE7FEE7FEE7FEE70C
:10020000FEE7FEE7FEE7FEE7A90D0008D9010008BA
:10021000D2B201E000F8012B491EFBD27047002248
:10022000F6E710B513460A4604461946FFF7F0FFF5
:10023000204610BD064C074D06E0E06840F0010383
:1002400094E8070098471034AC42F6D3FFF7C8FF94
:10025000800E0008A00E0008FEE770472DE9FC4F55
:10026000DFF8A0A1002301250AF1040B03244FF0BD
:100270000F0C0BF1040EBDE005FA03F632406FD00F
:100280004F68012F05D0022F03D0112F01D0122F5C
:1002900017D1D0F808905F0004FA07F829EA080996
:1002A0000097D1F80C8008FA07F848EA0908C0F866
:1002B00008804768B7430E79C6F300169E403E4358
:1002C0004660C6684FEA430804FA08F7BE43019740
:1002D0008F6807FA08F73743C7604E68022E01D0CF
:1002E000122E13D1DE0800EB86060096366A5F07F1
:1002F000FF0E0CFA07F926EA0906D1F8109009FA60
:1003000007F949EA0609009EC6F820900668019F91
:10031000BE430F7907F0030707FA08F73743076072
:100320004E68F60065D5384E376E47F001073766E0
:10033000366E23F0030706F001060096334E3E4466
:10034000B146B6689F074FEA17780CFA08F7BE4324
:10035000B0F1904F05D02E4FB84204D1012717E0DD
:1003600047E0002714E02B4FB84201D102270FE0ED
:10037000294FB84201D103270AE0284FB84201D1E2
:10038000042705E0264FB84201D1052700E00627E3
:1003900007FA08F73743C9F80870DAF800605746DB
:1003A000D1F8048096435FEAC83800D516433E6012
:1003B000DBF800605F46D1F8048096435FEA883836
:1003C00000D516433E60DEF800607746D1F8048021
:1003D00096435FEAC82800D516433E60094F0C37A4
:1003E0003E68D1F8048096435FEA882800D516431A
:1003F0003E605B1C0A6832FA03F67FF43DAFBDE84D
:10040000FC8F000000040140001002400000014089
:100410000004004800080048000C00480010004894
:10042000001400480AB18161704781627047000082
:100430000148806870470000000000200248816881
:1004400042681144816070470000002010B500240C
:10045000032000F065F8002000F008F808B101243E
:1004600001E000F025F8204610BD000070B50E4EEA
:1004700005460024706898B14FF47A71B1FBF0F032
:100480000A490968B1FBF0F000F0EEFB40B9102D0D
:1004900006D200222946501E00F022F8356000E006
:1004A0000124204670BD0000000000200C00002048
:1004B0000A4882B0016E41F001010166016E01F04F
:1004C00001010091816D41F080518165806D00F0E6
:1004D0008050009002B000F093B80000001002407D
:1004E000F0B40E4B1B680C46C3F30223C3F107059F
:1004F000042D00D90425191D072901D2002300E08D
:10050000DB1E012606FA05F1491E214099409E4056
:10051000761E16403143F0BC00F055BC0CED00E0F7
:10052000064900F0070208684FF6FF03184040EA4A
:100530000220034A10430860704700000CED00E001
:100540000000FA052B492C4B0A6832214A432B49FB
:1005500040B1B0F5007F086829D020F4C06040F4B5
:1005600080602CE00868C0F34120022804D051F8D4
:10057000800F20F4807022E0D1F8800020F4807099
:10058000C1F88000086820F4C06040F40070086082
:10059000B2FBF3F0401C00E0401E4A69520501D551
:1005A0000028F9D1486940050AD503207047C0F3F7
:1005B0004120022806D051F8800F40F48070086076
:1005C00000207047D1F8800040F48070C1F88000AE
:1005D000086820F4C06040F400700860B2FBF3F0DB
:1005E000401C00E0401E4A695205DBD50028F9D1C5
:1005F000D8E700000C00002040420F0000700040CF
:100600000248816841F48041816070470070004079
:100610002DE9F0470E4605004FF0000725D0DFF822
:10062000AC81D8F8000000F00F00B0420CD2D8F82E
:10063000001021F00F013143C8F80010D8F8000075
:1006400000F00F00B04210D12968614CC80741F298
:10065000883A5AD06868DFF87C91032808D00228CD
:1006600020682DD0400500282CDB0120BDE8F08754
:1006700020688001F9D5E06800F00302E068C0F36B
:100680000310401C032A19D0534A00BFB2FBF0F0FC
:10069000E268C2F306225043E268C2F34162521C90
:1006A0005200B0FBF2F0484517D9A06810F0F00FE7
:1006B0000CD0880711D5A86840B10EE0474AE5E79D
:1006C0008003D0E700F092F8484506D9A06820F0F2
:1006D000F00040F08000A0608027A068696820F0EA
:1006E00003000843A060FFF7A3FE814606E000BFB9
:1006F000FFF79EFEA0EB090151453AD8A068696852
:1007000000F00C00B0EB810FF2D12868810714D5FE
:10071000400703D5A06840F4E060A0602878000797
:1007200005D5A06820F4605040F4E060A060A068A7
:10073000A96820F0F000084304E0802F03D1A068EE
:1007400020F0F000A060D8F80010404601F00F0142
:10075000B14216D9016821F00F0131430160FFF762
:1007600067FE074607E000BFFFF762FEC11B514569
:1007700001D903207AE7D8F8000000F00F00B0425A
:10078000F2D12878400705D5A068E96820F4E06038
:100790000843A0602878000706D5A068296920F4DE
:1007A000605040EAC100A06000F020F8A1680C4A47
:1007B000C1F30311515C01F01F01C84009490860F1
:1007C00009480068BDE8F047FFF750BE002002402E
:1007D0000010024000B4C4040024F40000366E018E
:1007E0006E0E00080C00002000000020184910B513
:1007F0008868C0F381021748012A0BD08A68164B1B
:10080000C2F38102022A06D08A68C2F38102032A57
:1008100003D0002010BD184610BDCA6802F00304C2
:10082000CA68C2F30312521C032C02D0B0FBF2F0D0
:1008300001E0B3FBF2F0CA68C968C2F30622504374
:10084000C1F34161491C4900B0FBF1F010BD00004B
:10085000001002400024F40000366E012DE9F84338
:1008600004007AD02078FA4DC00747D0A868E9681C
:1008700000F00C0001F003010C2802D0082817D06A
:1008800001E0032914D06068B0F5803F17D0B0F5BF
:10089000A02F286817D020F480302860286820F422
:1008A000802028606068E0B1FFF7C2FD064614E0D2
:1008B0002868800322D560680028D2D01EE028680E
:1008C00040F48030EDE740F480202860F7E700BF77
:1008D000FFF7AEFD801B642870D828688003F7D529
:1008E0000CE0FFF7A5FD064605E000BFFFF7A0FD01
:1008F000801B6428F0D828688003F7D4207880070C
:100900004CD5A868E96800F00C0001F003010C2840
:1009100002D004280DD001E002290AD0E0680028A6
:1009200028682BD040F480702860FFF781FD0646D0
:1009300019E02868400502D5E068002891D0686871
:10094000217C20F0FE4040EA01606860C1480068F8
:10095000FFF78CFD002800D120E076E1FFF768FD6D
:10096000801B0228B8D828684005F7D56868217C24
:1009700020F0FE4040EA016068600FE020F48070E3
:100980002860FFF755FD064605E000BFFFF750FD64
:10099000801B0228A0D828684005F7D420780007DB
:1009A00029D560690028D5F8940013D040F00100E3
:1009B000C5F89400FFF73CFD064606E090E000BF56
:1009C000FFF736FD801B022886D8D5F894008007F3
:1009D000F6D510E020F00100C5F89400FFF728FDDF
:1009E000064604E0FFF724FD801B022878D8D5F8DE
:1009F00094008007F6D42078400761D5A86D0026C2
:100A0000C00008D4A86D40F08050A865A86D0126EC
:100A100000F08050009090480168C90511D4016829
:100A2000804641F480710160FFF702FD074604E053
:100A3000FFF7FEFCC01B022852D8D8F80000C00502
:100A4000F6D5A068012815D00528D5F8900016D055
:100A500020F00100C5F89000D5F8900020F00400C7
:100A6000C5F89000A06841F28838B8B1FFF7E0FC03
:100A700007460EE0D5F8900040F00100F0E740F0A6
:100A80000400C5F89000F5E7FFF7D2FCC11B414513
:100A900026D8D5F890008007F6D50CE0FFF7C8FC03
:100AA000074604E0FFF7C4FCC11B414518D8D5F840
:100AB00090008007F6D41EB1A86D20F08050A86584
:100AC0002078800629D5A0690028D5F8980013D091
:100AD00040F00100C5F89800FFF7AAFC064606E0C2
:100AE00077E000BFFFF7A4FC801B022877D8D5F879
:100AF00098008007F6D510E020F00100C5F89800B6
:100B0000FFF796FC064604E0FFF792FC801B0228E4
:100B100065D8D5F898008007F6D4E069F0B3A968E5
:100B2000C1F38101032961D00228286820F0807078
:100B300028600BD0E86820F00300E860E8684749C7
:100B40000840E860FFF774FC04464BE0FFF770FCD8
:100B5000064604E0FFF76CFC801B02283FD828689B
:100B60008001F7D4F4E908016FF00F0202EB0111E4
:100B70000843218A5204490802EB4151A26841EA24
:100B800002210843217D4FF07E42490802EB41617A
:100B90000843217B40EAC160E96800E062E0304A36
:100BA00011400843E860286840F080702860E868D9
:100BB00040F08070E860FFF73BFC044605E000BFB2
:100BC000FFF736FC001B022809D828688001F7D5FA
:100BD00048E004E0FFF72CFC001B022802D90320A8
:100BE000BDE8F88328688001F4D43BE00128F7D001
:100BF000E868226A00F00301914226D1616A00F0A0
:100C0000F0020901103991421FD1A26A00F4FE419D
:100C1000B1EB022F19D194F82C2000F07841B1EB00
:100C2000C26F12D1218E00F4C00249084905A1F516
:100C30000011914209D194F8341000F0C0604908C5
:100C40004906A1F1007181420CD00120C8E70000E3
:100C5000001002400000002000700040FFFFEEFE88
:100C60000C809F010020BBE710B5401EB0F1807FD3
:100C700001D3012010BD4FF0E02460610F21601707
:100C800000F0A1F80020A06107202061002010BD25
:100C9000FEE70000F0B587B014216846FFF7BFFA01
:100CA0002148C16C41F00401C164C16C01F0040130
:100CB0000591C16C41F02001C164C16C01F02001BB
:100CC0000591C16C41F00101C164C16C01F00101E9
:100CD0000591C16C41F00801C164C06C134E00F075
:100CE00008004FF47F440590012221463046FFF76B
:100CF00099FB0F4F012204213846FFF793FB012592
:100D0000CDE9004500240294694630460394FFF77C
:100D1000A5FA04200090CDE90154694638460394B1
:100D2000FFF79CFA07B0F0BD001002400008004831
:100D3000000C0048FEE7FEE770477047FFF77EBBF8
:100D400010B594B038216846FFF769FA14210EA84F
:100D5000FFF765FA4FF40070FFF7F4FB01200090F5
:100D60000004019002200324CDE907041421CDE9F9
:100D70000A100C900D9009946846FFF76FFD08B1BA
:100D800072B6FEE70F20CDE90E04002010901190FE
:100D9000129002210EA8FFF73BFC002801D072B68A
:100DA000FEE714B010BD00000548016841F4700171
:100DB000016003494FF0006080390860704700000F
:100DC00088ED00E0FEE70907090E002804DB00F1CA
:100DD000E02080F80014704700F00F0000F1E020E0
:100DE00080F8141D704702E008C8121F08C1002ACD
:100DF000FAD170477047002001E001C1121F002A9C
:100E0000FBD1704770B50E4E0D46044601220421F9
:100E10003046FFF707FB4FF48070641EA040094B7B
:100E200081B20DB1002200E001221846FFF7FAFA64
:100E30003046BDE8704000220421FFF7F3BA0000FD
:100E4000000C004800080048FFF700FBFFF778FFA0
:100E5000FFF720FF01210846FFF7D4FF01210420FE
:100E6000FFF7D0FF01210820FFF7CCFFF2E70000D9
:100E7000000000000000010203040607080900004A
:100E8000A00E00080000002010000000E60D000881
:100E9000B00E00081000002000040000F60D00084D
:100EA0001000000001000000000000000024F40019
:04000005080001D915
:00000001FF
